{
  "transactions": [
    {
      "hash": "0x1684c9312a11d3407aca00dae1a27e555872903483452de2d33d3d3454e9765d",
      "transactionType": "CREATE",
      "contractName": "TestToken",
      "contractAddress": "0x23BAd11F1543503CB1FB5dAd05fdAF93F42d30F3",
      "function": null,
      "arguments": [
        "\"EURS\"",
        "\"EURS\"",
        "2"
      ],
      "transaction": {
        "type": "0x02",
        "from": "0x75d06bae37a9c349142fe7cee77804900b1c0ec3",
        "gas": "0x10331f",
        "value": "0x0",
        "data": "0x60806040523480156200001157600080fd5b5060405162000f7b38038062000f7b833981016040819052620000349162000228565b828260036200004483826200033c565b5060046200005382826200033c565b506200006591506000905033620000b0565b50620000927f9f2df0fed2c77648de5860a4cc508cd0818c85b8b8a1ab4ceeef8d981c8956a633620000b0565b506006805460ff191660ff9290921691909117905550620004089050565b60008281526005602090815260408083206001600160a01b038516845290915281205460ff16620001595760008381526005602090815260408083206001600160a01b03861684529091529020805460ff19166001179055620001103390565b6001600160a01b0316826001600160a01b0316847f2f8788117e7eff1d82e926ec794901d17c78024a50270940304540a733656f0d60405160405180910390a45060016200015d565b5060005b92915050565b634e487b7160e01b600052604160045260246000fd5b600082601f8301126200018b57600080fd5b81516001600160401b0380821115620001a857620001a862000163565b604051601f8301601f19908116603f01168101908282118183101715620001d357620001d362000163565b81604052838152602092508683858801011115620001f057600080fd5b600091505b83821015620002145785820183015181830184015290820190620001f5565b600093810190920192909252949350505050565b6000806000606084860312156200023e57600080fd5b83516001600160401b03808211156200025657600080fd5b620002648783880162000179565b945060208601519150808211156200027b57600080fd5b506200028a8682870162000179565b925050604084015160ff81168114620002a257600080fd5b809150509250925092565b600181811c90821680620002c257607f821691505b602082108103620002e357634e487b7160e01b600052602260045260246000fd5b50919050565b601f8211156200033757600081815260208120601f850160051c81016020861015620003125750805b601f850160051c820191505b8181101562000333578281556001016200031e565b5050505b505050565b81516001600160401b0381111562000358576200035862000163565b6200037081620003698454620002ad565b84620002e9565b602080601f831160018114620003a857600084156200038f5750858301515b600019600386901b1c1916600185901b17855562000333565b600085815260208120601f198616915b82811015620003d957888601518255948401946001909101908401620003b8565b5085821015620003f85787850151600019600388901b60f8161c191681555b5050505050600190811b01905550565b610b6380620004186000396000f3fe608060405234801561001057600080fd5b50600436106101165760003560e01c806340c10f19116100a2578063a217fddf11610071578063a217fddf14610247578063a9059cbb1461024f578063d539139314610262578063d547741f14610289578063dd62ed3e1461029c57600080fd5b806340c10f19146101f057806370a082311461020357806391d148541461022c57806395d89b411461023f57600080fd5b806323b872dd116100e957806323b872dd1461017d578063248a9ca3146101905780632f2ff15d146101b3578063313ce567146101c857806336568abe146101dd57600080fd5b806301ffc9a71461011b57806306fdde0314610143578063095ea7b31461015857806318160ddd1461016b575b600080fd5b61012e610129366004610947565b6102d5565b60405190151581526020015b60405180910390f35b61014b61030c565b60405161013a9190610978565b61012e6101663660046109e2565b61039e565b6002545b60405190815260200161013a565b61012e61018b366004610a0c565b6103b6565b61016f61019e366004610a48565b60009081526005602052604090206001015490565b6101c66101c1366004610a61565b6103da565b005b60065460405160ff909116815260200161013a565b6101c66101eb366004610a61565b610405565b6101c66101fe3660046109e2565b61043d565b61016f610211366004610a8d565b6001600160a01b031660009081526020819052604090205490565b61012e61023a366004610a61565b610471565b61014b61049c565b61016f600081565b61012e61025d3660046109e2565b6104ab565b61016f7f9f2df0fed2c77648de5860a4cc508cd0818c85b8b8a1ab4ceeef8d981c8956a681565b6101c6610297366004610a61565b6104b9565b61016f6102aa366004610aa8565b6001600160a01b03918216600090815260016020908152604080832093909416825291909152205490565b60006001600160e01b03198216637965db0b60e01b148061030657506301ffc9a760e01b6001600160e01b03198316145b92915050565b60606003805461031b90610ad2565b80601f016020809104026020016040519081016040528092919081815260200182805461034790610ad2565b80156103945780601f1061036957610100808354040283529160200191610394565b820191906000526020600020905b81548152906001019060200180831161037757829003601f168201915b5050505050905090565b6000336103ac8185856104de565b5060019392505050565b6000336103c48582856104eb565b6103cf858585610568565b506001949350505050565b6000828152600560205260409020600101546103f5816105c7565b6103ff83836105d4565b50505050565b6001600160a01b038116331461042e5760405163334bd91960e11b815260040160405180910390fd5b6104388282610668565b505050565b7f9f2df0fed2c77648de5860a4cc508cd0818c85b8b8a1ab4ceeef8d981c8956a6610467816105c7565b61043883836106d5565b60009182526005602090815260408084206001600160a01b0393909316845291905290205460ff1690565b60606004805461031b90610ad2565b6000336103ac818585610568565b6000828152600560205260409020600101546104d4816105c7565b6103ff8383610668565b610438838383600161070f565b6001600160a01b0383811660009081526001602090815260408083209386168352929052205460001981146103ff578181101561055957604051637dc7a0d960e11b81526001600160a01b038416600482015260248101829052604481018390526064015b60405180910390fd5b6103ff8484848403600061070f565b6001600160a01b03831661059257604051634b637e8f60e11b815260006004820152602401610550565b6001600160a01b0382166105bc5760405163ec442f0560e01b815260006004820152602401610550565b6104388383836107e4565b6105d1813361090e565b50565b60006105e08383610471565b6106605760008381526005602090815260408083206001600160a01b03861684529091529020805460ff191660011790556106183390565b6001600160a01b0316826001600160a01b0316847f2f8788117e7eff1d82e926ec794901d17c78024a50270940304540a733656f0d60405160405180910390a4506001610306565b506000610306565b60006106748383610471565b156106605760008381526005602090815260408083206001600160a01b0386168085529252808320805460ff1916905551339286917ff6391f5c32d9c69d2a47ea670b442974b53935d1edc7fd64eb21e047a839171b9190a4506001610306565b6001600160a01b0382166106ff5760405163ec442f0560e01b815260006004820152602401610550565b61070b600083836107e4565b5050565b6001600160a01b0384166107395760405163e602df0560e01b815260006004820152602401610550565b6001600160a01b03831661076357604051634a1406b160e11b815260006004820152602401610550565b6001600160a01b03808516600090815260016020908152604080832093871683529290522082905580156103ff57826001600160a01b0316846001600160a01b03167f8c5be1e5ebec7d5bd14f71427d1e84f3dd0314c0f7b2291e5b200ac8c7c3b925846040516107d691815260200190565b60405180910390a350505050565b6001600160a01b03831661080f5780600260008282546108049190610b0c565b909155506108819050565b6001600160a01b038316600090815260208190526040902054818110156108625760405163391434e360e21b81526001600160a01b03851660048201526024810182905260448101839052606401610550565b6001600160a01b03841660009081526020819052604090209082900390555b6001600160a01b03821661089d576002805482900390556108bc565b6001600160a01b03821660009081526020819052604090208054820190555b816001600160a01b0316836001600160a01b03167fddf252ad1be2c89b69c2b068fc378daa952ba7f163c4a11628f55a4df523b3ef8360405161090191815260200190565b60405180910390a3505050565b6109188282610471565b61070b5760405163e2517d3f60e01b81526001600160a01b038216600482015260248101839052604401610550565b60006020828403121561095957600080fd5b81356001600160e01b03198116811461097157600080fd5b9392505050565b600060208083528351808285015260005b818110156109a557858101830151858201604001528201610989565b506000604082860101526040601f19601f8301168501019250505092915050565b80356001600160a01b03811681146109dd57600080fd5b919050565b600080604083850312156109f557600080fd5b6109fe836109c6565b946020939093013593505050565b600080600060608486031215610a2157600080fd5b610a2a846109c6565b9250610a38602085016109c6565b9150604084013590509250925092565b600060208284031215610a5a57600080fd5b5035919050565b60008060408385031215610a7457600080fd5b82359150610a84602084016109c6565b90509250929050565b600060208284031215610a9f57600080fd5b610971826109c6565b60008060408385031215610abb57600080fd5b610ac4836109c6565b9150610a84602084016109c6565b600181811c90821680610ae657607f821691505b602082108103610b0657634e487b7160e01b600052602260045260246000fd5b50919050565b8082018082111561030657634e487b7160e01b600052601160045260246000fdfea2646970667358221220c3fd4d0a13c1aeda53523af1addf290507128a68e94526bd340b5911d55a706b64736f6c63430008150033000000000000000000000000000000000000000000000000000000000000006000000000000000000000000000000000000000000000000000000000000000a000000000000000000000000000000000000000000000000000000000000000020000000000000000000000000000000000000000000000000000000000000004455552530000000000000000000000000000000000000000000000000000000000000000000000000000000000000000000000000000000000000000000000044555525300000000000000000000000000000000000000000000000000000000",
        "nonce": "0x14",
        "accessList": []
      },
      "additionalContracts": [],
      "isFixedGasLimit": false
    },
    {
      "hash": "0x0e77fce3cec31ab2147f4083add0612eb61b5fb1d9fe13d8b5cef30a4b0d0a9e",
      "transactionType": "CALL",
      "contractName": "src/TestToken.sol:TestToken",
      "contractAddress": "0x23BAd11F1543503CB1FB5dAd05fdAF93F42d30F3",
      "function": "mint(address,uint256)",
      "arguments": [
        "0x26bfAecAe4D5fa93eE1737ce1Ce7D53F2a0E9b2d",
        "10000000"
      ],
      "transaction": {
        "type": "0x02",
        "from": "0x75d06bae37a9c349142fe7cee77804900b1c0ec3",
        "to": "0x23bad11f1543503cb1fb5dad05fdaf93f42d30f3",
        "gas": "0x1946e",
        "value": "0x0",
        "data": "0x40c10f1900000000000000000000000026bfaecae4d5fa93ee1737ce1ce7d53f2a0e9b2d0000000000000000000000000000000000000000000000000000000000989680",
        "nonce": "0x15",
        "accessList": []
      },
      "additionalContracts": [],
      "isFixedGasLimit": false
    },
    {
      "hash": "0x08dcad751dab49c157b4d8495abc2e147ce8bee6f6db060c1e9bea3d74379ae7",
      "transactionType": "CREATE",
      "contractName": "TestToken",
      "contractAddress": "0x0f409E839a6A790aecB737E4436293Be11717f95",
      "function": null,
      "arguments": [
        "\"BeethovenxToken\"",
        "\"BEETS\"",
        "18"
      ],
      "transaction": {
        "type": "0x02",
        "from": "0x75d06bae37a9c349142fe7cee77804900b1c0ec3",
        "gas": "0x1033da",
        "value": "0x0",
        "data": "0x60806040523480156200001157600080fd5b5060405162000f7b38038062000f7b833981016040819052620000349162000228565b828260036200004483826200033c565b5060046200005382826200033c565b506200006591506000905033620000b0565b50620000927f9f2df0fed2c77648de5860a4cc508cd0818c85b8b8a1ab4ceeef8d981c8956a633620000b0565b506006805460ff191660ff9290921691909117905550620004089050565b60008281526005602090815260408083206001600160a01b038516845290915281205460ff16620001595760008381526005602090815260408083206001600160a01b03861684529091529020805460ff19166001179055620001103390565b6001600160a01b0316826001600160a01b0316847f2f8788117e7eff1d82e926ec794901d17c78024a50270940304540a733656f0d60405160405180910390a45060016200015d565b5060005b92915050565b634e487b7160e01b600052604160045260246000fd5b600082601f8301126200018b57600080fd5b81516001600160401b0380821115620001a857620001a862000163565b604051601f8301601f19908116603f01168101908282118183101715620001d357620001d362000163565b81604052838152602092508683858801011115620001f057600080fd5b600091505b83821015620002145785820183015181830184015290820190620001f5565b600093810190920192909252949350505050565b6000806000606084860312156200023e57600080fd5b83516001600160401b03808211156200025657600080fd5b620002648783880162000179565b945060208601519150808211156200027b57600080fd5b506200028a8682870162000179565b925050604084015160ff81168114620002a257600080fd5b809150509250925092565b600181811c90821680620002c257607f821691505b602082108103620002e357634e487b7160e01b600052602260045260246000fd5b50919050565b601f8211156200033757600081815260208120601f850160051c81016020861015620003125750805b601f850160051c820191505b8181101562000333578281556001016200031e565b5050505b505050565b81516001600160401b0381111562000358576200035862000163565b6200037081620003698454620002ad565b84620002e9565b602080601f831160018114620003a857600084156200038f5750858301515b600019600386901b1c1916600185901b17855562000333565b600085815260208120601f198616915b82811015620003d957888601518255948401946001909101908401620003b8565b5085821015620003f85787850151600019600388901b60f8161c191681555b5050505050600190811b01905550565b610b6380620004186000396000f3fe608060405234801561001057600080fd5b50600436106101165760003560e01c806340c10f19116100a2578063a217fddf11610071578063a217fddf14610247578063a9059cbb1461024f578063d539139314610262578063d547741f14610289578063dd62ed3e1461029c57600080fd5b806340c10f19146101f057806370a082311461020357806391d148541461022c57806395d89b411461023f57600080fd5b806323b872dd116100e957806323b872dd1461017d578063248a9ca3146101905780632f2ff15d146101b3578063313ce567146101c857806336568abe146101dd57600080fd5b806301ffc9a71461011b57806306fdde0314610143578063095ea7b31461015857806318160ddd1461016b575b600080fd5b61012e610129366004610947565b6102d5565b60405190151581526020015b60405180910390f35b61014b61030c565b60405161013a9190610978565b61012e6101663660046109e2565b61039e565b6002545b60405190815260200161013a565b61012e61018b366004610a0c565b6103b6565b61016f61019e366004610a48565b60009081526005602052604090206001015490565b6101c66101c1366004610a61565b6103da565b005b60065460405160ff909116815260200161013a565b6101c66101eb366004610a61565b610405565b6101c66101fe3660046109e2565b61043d565b61016f610211366004610a8d565b6001600160a01b031660009081526020819052604090205490565b61012e61023a366004610a61565b610471565b61014b61049c565b61016f600081565b61012e61025d3660046109e2565b6104ab565b61016f7f9f2df0fed2c77648de5860a4cc508cd0818c85b8b8a1ab4ceeef8d981c8956a681565b6101c6610297366004610a61565b6104b9565b61016f6102aa366004610aa8565b6001600160a01b03918216600090815260016020908152604080832093909416825291909152205490565b60006001600160e01b03198216637965db0b60e01b148061030657506301ffc9a760e01b6001600160e01b03198316145b92915050565b60606003805461031b90610ad2565b80601f016020809104026020016040519081016040528092919081815260200182805461034790610ad2565b80156103945780601f1061036957610100808354040283529160200191610394565b820191906000526020600020905b81548152906001019060200180831161037757829003601f168201915b5050505050905090565b6000336103ac8185856104de565b5060019392505050565b6000336103c48582856104eb565b6103cf858585610568565b506001949350505050565b6000828152600560205260409020600101546103f5816105c7565b6103ff83836105d4565b50505050565b6001600160a01b038116331461042e5760405163334bd91960e11b815260040160405180910390fd5b6104388282610668565b505050565b7f9f2df0fed2c77648de5860a4cc508cd0818c85b8b8a1ab4ceeef8d981c8956a6610467816105c7565b61043883836106d5565b60009182526005602090815260408084206001600160a01b0393909316845291905290205460ff1690565b60606004805461031b90610ad2565b6000336103ac818585610568565b6000828152600560205260409020600101546104d4816105c7565b6103ff8383610668565b610438838383600161070f565b6001600160a01b0383811660009081526001602090815260408083209386168352929052205460001981146103ff578181101561055957604051637dc7a0d960e11b81526001600160a01b038416600482015260248101829052604481018390526064015b60405180910390fd5b6103ff8484848403600061070f565b6001600160a01b03831661059257604051634b637e8f60e11b815260006004820152602401610550565b6001600160a01b0382166105bc5760405163ec442f0560e01b815260006004820152602401610550565b6104388383836107e4565b6105d1813361090e565b50565b60006105e08383610471565b6106605760008381526005602090815260408083206001600160a01b03861684529091529020805460ff191660011790556106183390565b6001600160a01b0316826001600160a01b0316847f2f8788117e7eff1d82e926ec794901d17c78024a50270940304540a733656f0d60405160405180910390a4506001610306565b506000610306565b60006106748383610471565b156106605760008381526005602090815260408083206001600160a01b0386168085529252808320805460ff1916905551339286917ff6391f5c32d9c69d2a47ea670b442974b53935d1edc7fd64eb21e047a839171b9190a4506001610306565b6001600160a01b0382166106ff5760405163ec442f0560e01b815260006004820152602401610550565b61070b600083836107e4565b5050565b6001600160a01b0384166107395760405163e602df0560e01b815260006004820152602401610550565b6001600160a01b03831661076357604051634a1406b160e11b815260006004820152602401610550565b6001600160a01b03808516600090815260016020908152604080832093871683529290522082905580156103ff57826001600160a01b0316846001600160a01b03167f8c5be1e5ebec7d5bd14f71427d1e84f3dd0314c0f7b2291e5b200ac8c7c3b925846040516107d691815260200190565b60405180910390a350505050565b6001600160a01b03831661080f5780600260008282546108049190610b0c565b909155506108819050565b6001600160a01b038316600090815260208190526040902054818110156108625760405163391434e360e21b81526001600160a01b03851660048201526024810182905260448101839052606401610550565b6001600160a01b03841660009081526020819052604090209082900390555b6001600160a01b03821661089d576002805482900390556108bc565b6001600160a01b03821660009081526020819052604090208054820190555b816001600160a01b0316836001600160a01b03167fddf252ad1be2c89b69c2b068fc378daa952ba7f163c4a11628f55a4df523b3ef8360405161090191815260200190565b60405180910390a3505050565b6109188282610471565b61070b5760405163e2517d3f60e01b81526001600160a01b038216600482015260248101839052604401610550565b60006020828403121561095957600080fd5b81356001600160e01b03198116811461097157600080fd5b9392505050565b600060208083528351808285015260005b818110156109a557858101830151858201604001528201610989565b506000604082860101526040601f19601f8301168501019250505092915050565b80356001600160a01b03811681146109dd57600080fd5b919050565b600080604083850312156109f557600080fd5b6109fe836109c6565b946020939093013593505050565b600080600060608486031215610a2157600080fd5b610a2a846109c6565b9250610a38602085016109c6565b9150604084013590509250925092565b600060208284031215610a5a57600080fd5b5035919050565b60008060408385031215610a7457600080fd5b82359150610a84602084016109c6565b90509250929050565b600060208284031215610a9f57600080fd5b610971826109c6565b60008060408385031215610abb57600080fd5b610ac4836109c6565b9150610a84602084016109c6565b600181811c90821680610ae657607f821691505b602082108103610b0657634e487b7160e01b600052602260045260246000fd5b50919050565b8082018082111561030657634e487b7160e01b600052601160045260246000fdfea2646970667358221220c3fd4d0a13c1aeda53523af1addf290507128a68e94526bd340b5911d55a706b64736f6c63430008150033000000000000000000000000000000000000000000000000000000000000006000000000000000000000000000000000000000000000000000000000000000a00000000000000000000000000000000000000000000000000000000000000012000000000000000000000000000000000000000000000000000000000000000f42656574686f76656e78546f6b656e000000000000000000000000000000000000000000000000000000000000000000000000000000000000000000000000054245455453000000000000000000000000000000000000000000000000000000",
        "nonce": "0x16",
        "accessList": []
      },
      "additionalContracts": [],
      "isFixedGasLimit": false
    },
    {
      "hash": "0x7a141fbd6852aecfa0ef63837fa29b0f196ebf53a4827da25ef38fcd4dd2546c",
      "transactionType": "CALL",
      "contractName": "src/TestToken.sol:TestToken",
      "contractAddress": "0x0f409E839a6A790aecB737E4436293Be11717f95",
      "function": "mint(address,uint256)",
      "arguments": [
        "0x26bfAecAe4D5fa93eE1737ce1Ce7D53F2a0E9b2d",
        "500000000000000000000000"
      ],
      "transaction": {
        "type": "0x02",
        "from": "0x75d06bae37a9c349142fe7cee77804900b1c0ec3",
        "to": "0x0f409e839a6a790aecb737e4436293be11717f95",
        "gas": "0x17e49",
        "value": "0x0",
        "data": "0x40c10f1900000000000000000000000026bfaecae4d5fa93ee1737ce1ce7d53f2a0e9b2d0000000000000000000000000000000000000000000069e10de76676d0800000",
        "nonce": "0x17",
        "accessList": []
      },
      "additionalContracts": [],
      "isFixedGasLimit": false
    },
    {
      "hash": "0xc61a1b3842199dc53617e4e2cbce5331464a417234fd098e864fe97bffcf3342",
      "transactionType": "CREATE",
      "contractName": "TestToken",
      "contractAddress": "0xC3745bcE4b5D0977dC874832BC99108D416dCe8f",
      "function": null,
      "arguments": [
        "\"Wrapped BTC\"",
        "\"WBTC\"",
        "8"
      ],
      "transaction": {
        "type": "0x02",
        "from": "0x75d06bae37a9c349142fe7cee77804900b1c0ec3",
        "gas": "0x10338c",
        "value": "0x0",
        "data": "0x60806040523480156200001157600080fd5b5060405162000f7b38038062000f7b833981016040819052620000349162000228565b828260036200004483826200033c565b5060046200005382826200033c565b506200006591506000905033620000b0565b50620000927f9f2df0fed2c77648de5860a4cc508cd0818c85b8b8a1ab4ceeef8d981c8956a633620000b0565b506006805460ff191660ff9290921691909117905550620004089050565b60008281526005602090815260408083206001600160a01b038516845290915281205460ff16620001595760008381526005602090815260408083206001600160a01b03861684529091529020805460ff19166001179055620001103390565b6001600160a01b0316826001600160a01b0316847f2f8788117e7eff1d82e926ec794901d17c78024a50270940304540a733656f0d60405160405180910390a45060016200015d565b5060005b92915050565b634e487b7160e01b600052604160045260246000fd5b600082601f8301126200018b57600080fd5b81516001600160401b0380821115620001a857620001a862000163565b604051601f8301601f19908116603f01168101908282118183101715620001d357620001d362000163565b81604052838152602092508683858801011115620001f057600080fd5b600091505b83821015620002145785820183015181830184015290820190620001f5565b600093810190920192909252949350505050565b6000806000606084860312156200023e57600080fd5b83516001600160401b03808211156200025657600080fd5b620002648783880162000179565b945060208601519150808211156200027b57600080fd5b506200028a8682870162000179565b925050604084015160ff81168114620002a257600080fd5b809150509250925092565b600181811c90821680620002c257607f821691505b602082108103620002e357634e487b7160e01b600052602260045260246000fd5b50919050565b601f8211156200033757600081815260208120601f850160051c81016020861015620003125750805b601f850160051c820191505b8181101562000333578281556001016200031e565b5050505b505050565b81516001600160401b0381111562000358576200035862000163565b6200037081620003698454620002ad565b84620002e9565b602080601f831160018114620003a857600084156200038f5750858301515b600019600386901b1c1916600185901b17855562000333565b600085815260208120601f198616915b82811015620003d957888601518255948401946001909101908401620003b8565b5085821015620003f85787850151600019600388901b60f8161c191681555b5050505050600190811b01905550565b610b6380620004186000396000f3fe608060405234801561001057600080fd5b50600436106101165760003560e01c806340c10f19116100a2578063a217fddf11610071578063a217fddf14610247578063a9059cbb1461024f578063d539139314610262578063d547741f14610289578063dd62ed3e1461029c57600080fd5b806340c10f19146101f057806370a082311461020357806391d148541461022c57806395d89b411461023f57600080fd5b806323b872dd116100e957806323b872dd1461017d578063248a9ca3146101905780632f2ff15d146101b3578063313ce567146101c857806336568abe146101dd57600080fd5b806301ffc9a71461011b57806306fdde0314610143578063095ea7b31461015857806318160ddd1461016b575b600080fd5b61012e610129366004610947565b6102d5565b60405190151581526020015b60405180910390f35b61014b61030c565b60405161013a9190610978565b61012e6101663660046109e2565b61039e565b6002545b60405190815260200161013a565b61012e61018b366004610a0c565b6103b6565b61016f61019e366004610a48565b60009081526005602052604090206001015490565b6101c66101c1366004610a61565b6103da565b005b60065460405160ff909116815260200161013a565b6101c66101eb366004610a61565b610405565b6101c66101fe3660046109e2565b61043d565b61016f610211366004610a8d565b6001600160a01b031660009081526020819052604090205490565b61012e61023a366004610a61565b610471565b61014b61049c565b61016f600081565b61012e61025d3660046109e2565b6104ab565b61016f7f9f2df0fed2c77648de5860a4cc508cd0818c85b8b8a1ab4ceeef8d981c8956a681565b6101c6610297366004610a61565b6104b9565b61016f6102aa366004610aa8565b6001600160a01b03918216600090815260016020908152604080832093909416825291909152205490565b60006001600160e01b03198216637965db0b60e01b148061030657506301ffc9a760e01b6001600160e01b03198316145b92915050565b60606003805461031b90610ad2565b80601f016020809104026020016040519081016040528092919081815260200182805461034790610ad2565b80156103945780601f1061036957610100808354040283529160200191610394565b820191906000526020600020905b81548152906001019060200180831161037757829003601f168201915b5050505050905090565b6000336103ac8185856104de565b5060019392505050565b6000336103c48582856104eb565b6103cf858585610568565b506001949350505050565b6000828152600560205260409020600101546103f5816105c7565b6103ff83836105d4565b50505050565b6001600160a01b038116331461042e5760405163334bd91960e11b815260040160405180910390fd5b6104388282610668565b505050565b7f9f2df0fed2c77648de5860a4cc508cd0818c85b8b8a1ab4ceeef8d981c8956a6610467816105c7565b61043883836106d5565b60009182526005602090815260408084206001600160a01b0393909316845291905290205460ff1690565b60606004805461031b90610ad2565b6000336103ac818585610568565b6000828152600560205260409020600101546104d4816105c7565b6103ff8383610668565b610438838383600161070f565b6001600160a01b0383811660009081526001602090815260408083209386168352929052205460001981146103ff578181101561055957604051637dc7a0d960e11b81526001600160a01b038416600482015260248101829052604481018390526064015b60405180910390fd5b6103ff8484848403600061070f565b6001600160a01b03831661059257604051634b637e8f60e11b815260006004820152602401610550565b6001600160a01b0382166105bc5760405163ec442f0560e01b815260006004820152602401610550565b6104388383836107e4565b6105d1813361090e565b50565b60006105e08383610471565b6106605760008381526005602090815260408083206001600160a01b03861684529091529020805460ff191660011790556106183390565b6001600160a01b0316826001600160a01b0316847f2f8788117e7eff1d82e926ec794901d17c78024a50270940304540a733656f0d60405160405180910390a4506001610306565b506000610306565b60006106748383610471565b156106605760008381526005602090815260408083206001600160a01b0386168085529252808320805460ff1916905551339286917ff6391f5c32d9c69d2a47ea670b442974b53935d1edc7fd64eb21e047a839171b9190a4506001610306565b6001600160a01b0382166106ff5760405163ec442f0560e01b815260006004820152602401610550565b61070b600083836107e4565b5050565b6001600160a01b0384166107395760405163e602df0560e01b815260006004820152602401610550565b6001600160a01b03831661076357604051634a1406b160e11b815260006004820152602401610550565b6001600160a01b03808516600090815260016020908152604080832093871683529290522082905580156103ff57826001600160a01b0316846001600160a01b03167f8c5be1e5ebec7d5bd14f71427d1e84f3dd0314c0f7b2291e5b200ac8c7c3b925846040516107d691815260200190565b60405180910390a350505050565b6001600160a01b03831661080f5780600260008282546108049190610b0c565b909155506108819050565b6001600160a01b038316600090815260208190526040902054818110156108625760405163391434e360e21b81526001600160a01b03851660048201526024810182905260448101839052606401610550565b6001600160a01b03841660009081526020819052604090209082900390555b6001600160a01b03821661089d576002805482900390556108bc565b6001600160a01b03821660009081526020819052604090208054820190555b816001600160a01b0316836001600160a01b03167fddf252ad1be2c89b69c2b068fc378daa952ba7f163c4a11628f55a4df523b3ef8360405161090191815260200190565b60405180910390a3505050565b6109188282610471565b61070b5760405163e2517d3f60e01b81526001600160a01b038216600482015260248101839052604401610550565b60006020828403121561095957600080fd5b81356001600160e01b03198116811461097157600080fd5b9392505050565b600060208083528351808285015260005b818110156109a557858101830151858201604001528201610989565b506000604082860101526040601f19601f8301168501019250505092915050565b80356001600160a01b03811681146109dd57600080fd5b919050565b600080604083850312156109f557600080fd5b6109fe836109c6565b946020939093013593505050565b600080600060608486031215610a2157600080fd5b610a2a846109c6565b9250610a38602085016109c6565b9150604084013590509250925092565b600060208284031215610a5a57600080fd5b5035919050565b60008060408385031215610a7457600080fd5b82359150610a84602084016109c6565b90509250929050565b600060208284031215610a9f57600080fd5b610971826109c6565b60008060408385031215610abb57600080fd5b610ac4836109c6565b9150610a84602084016109c6565b600181811c90821680610ae657607f821691505b602082108103610b0657634e487b7160e01b600052602260045260246000fd5b50919050565b8082018082111561030657634e487b7160e01b600052601160045260246000fdfea2646970667358221220c3fd4d0a13c1aeda53523af1addf290507128a68e94526bd340b5911d55a706b64736f6c63430008150033000000000000000000000000000000000000000000000000000000000000006000000000000000000000000000000000000000000000000000000000000000a00000000000000000000000000000000000000000000000000000000000000008000000000000000000000000000000000000000000000000000000000000000b577261707065642042544300000000000000000000000000000000000000000000000000000000000000000000000000000000000000000000000000000000045742544300000000000000000000000000000000000000000000000000000000",
        "nonce": "0x18",
        "accessList": []
      },
      "additionalContracts": [],
      "isFixedGasLimit": false
    },
    {
      "hash": "0x4daba0a5ac68185fe5d71b8cc3fda1911c4ce60926c97cbf18fd14ed456a6bbb",
      "transactionType": "CALL",
      "contractName": "src/TestToken.sol:TestToken",
      "contractAddress": "0xC3745bcE4b5D0977dC874832BC99108D416dCe8f",
      "function": "mint(address,uint256)",
      "arguments": [
        "0x26bfAecAe4D5fa93eE1737ce1Ce7D53F2a0E9b2d",
        "1000000000"
      ],
      "transaction": {
        "type": "0x02",
        "from": "0x75d06bae37a9c349142fe7cee77804900b1c0ec3",
        "to": "0xc3745bce4b5d0977dc874832bc99108d416dce8f",
        "gas": "0x1946e",
        "value": "0x0",
        "data": "0x40c10f1900000000000000000000000026bfaecae4d5fa93ee1737ce1ce7d53f2a0e9b2d000000000000000000000000000000000000000000000000000000003b9aca00",
        "nonce": "0x19",
        "accessList": []
      },
      "additionalContracts": [],
      "isFixedGasLimit": false
    },
    {
      "hash": "0x8ccf71023d9498ca50acc7911d39644103f4ed4efae066b9f454a8026f9d5c05",
      "transactionType": "CALL",
      "contractName": "Faucet",
      "contractAddress": "0x26bfAecAe4D5fa93eE1737ce1Ce7D53F2a0E9b2d",
      "function": "setAmount(address,uint256)",
      "arguments": [
        "0x23BAd11F1543503CB1FB5dAd05fdAF93F42d30F3",
        "50000"
      ],
      "transaction": {
        "type": "0x02",
        "from": "0x75d06bae37a9c349142fe7cee77804900b1c0ec3",
        "to": "0x26bfaecae4d5fa93ee1737ce1ce7d53f2a0e9b2d",
        "gas": "0xf99d",
        "value": "0x0",
        "data": "0xd2fafb1900000000000000000000000023bad11f1543503cb1fb5dad05fdaf93f42d30f3000000000000000000000000000000000000000000000000000000000000c350",
        "nonce": "0x1a",
        "accessList": []
      },
      "additionalContracts": [],
      "isFixedGasLimit": false
    },
    {
      "hash": "0x1b6bf4f995c7eeb7ef2912c78d0f48980033aca18f963f4289d198b1e15f2b71",
      "transactionType": "CALL",
      "contractName": "Faucet",
      "contractAddress": "0x26bfAecAe4D5fa93eE1737ce1Ce7D53F2a0E9b2d",
      "function": "setAmount(address,uint256)",
      "arguments": [
        "0x0f409E839a6A790aecB737E4436293Be11717f95",
        "5000000000000000000000"
      ],
      "transaction": {
        "type": "0x02",
        "from": "0x75d06bae37a9c349142fe7cee77804900b1c0ec3",
        "to": "0x26bfaecae4d5fa93ee1737ce1ce7d53f2a0e9b2d",
        "gas": "0xfa01",
        "value": "0x0",
        "data": "0xd2fafb190000000000000000000000000f409e839a6a790aecb737e4436293be11717f9500000000000000000000000000000000000000000000010f0cf064dd59200000",
        "nonce": "0x1b",
        "accessList": []
      },
      "additionalContracts": [],
      "isFixedGasLimit": false
    },
    {
      "hash": "0xf1dba0810833709b8209d00de373a16c71eea397e88a26b8602c60f4f6bcc420",
      "transactionType": "CALL",
      "contractName": "Faucet",
      "contractAddress": "0x26bfAecAe4D5fa93eE1737ce1Ce7D53F2a0E9b2d",
      "function": "setAmount(address,uint256)",
      "arguments": [
        "0xC3745bcE4b5D0977dC874832BC99108D416dCe8f",
        "1000000"
      ],
      "transaction": {
        "type": "0x02",
        "from": "0x75d06bae37a9c349142fe7cee77804900b1c0ec3",
        "to": "0x26bfaecae4d5fa93ee1737ce1ce7d53f2a0e9b2d",
        "gas": "0xf9ae",
        "value": "0x0",
        "data": "0xd2fafb19000000000000000000000000c3745bce4b5d0977dc874832bc99108d416dce8f00000000000000000000000000000000000000000000000000000000000f4240",
        "nonce": "0x1c",
        "accessList": []
      },
      "additionalContracts": [],
      "isFixedGasLimit": false
    }
  ],
  "receipts": [
    {
      "transactionHash": "0x1684c9312a11d3407aca00dae1a27e555872903483452de2d33d3d3454e9765d",
      "transactionIndex": "0x2c",
      "blockHash": "0x21a23f5ee70e209d5b82cbe66d1acbc47a7a27336400b408f9f6f542c7575f2f",
      "blockNumber": "0x514812",
      "from": "0x75D06bae37a9c349142fE7cee77804900b1C0EC3",
      "to": null,
      "cumulativeGasUsed": "0x44bd33",
      "gasUsed": "0xc771e",
      "contractAddress": "0x23BAd11F1543503CB1FB5dAd05fdAF93F42d30F3",
      "logs": [
        {
          "address": "0x23BAd11F1543503CB1FB5dAd05fdAF93F42d30F3",
          "topics": [
            "0x2f8788117e7eff1d82e926ec794901d17c78024a50270940304540a733656f0d",
            "0x0000000000000000000000000000000000000000000000000000000000000000",
            "0x00000000000000000000000075d06bae37a9c349142fe7cee77804900b1c0ec3",
            "0x00000000000000000000000075d06bae37a9c349142fe7cee77804900b1c0ec3"
          ],
          "data": "0x",
          "blockHash": "0x21a23f5ee70e209d5b82cbe66d1acbc47a7a27336400b408f9f6f542c7575f2f",
          "blockNumber": "0x514812",
          "transactionHash": "0x1684c9312a11d3407aca00dae1a27e555872903483452de2d33d3d3454e9765d",
          "transactionIndex": "0x2c",
          "logIndex": "0x48",
          "removed": false
        },
        {
          "address": "0x23BAd11F1543503CB1FB5dAd05fdAF93F42d30F3",
          "topics": [
            "0x2f8788117e7eff1d82e926ec794901d17c78024a50270940304540a733656f0d",
            "0x9f2df0fed2c77648de5860a4cc508cd0818c85b8b8a1ab4ceeef8d981c8956a6",
            "0x00000000000000000000000075d06bae37a9c349142fe7cee77804900b1c0ec3",
            "0x00000000000000000000000075d06bae37a9c349142fe7cee77804900b1c0ec3"
          ],
          "data": "0x",
          "blockHash": "0x21a23f5ee70e209d5b82cbe66d1acbc47a7a27336400b408f9f6f542c7575f2f",
          "blockNumber": "0x514812",
          "transactionHash": "0x1684c9312a11d3407aca00dae1a27e555872903483452de2d33d3d3454e9765d",
          "transactionIndex": "0x2c",
          "logIndex": "0x49",
          "removed": false
        }
      ],
      "status": "0x1",
      "logsBloom": "0x00000004000000000000000000000000000000000000000000000010000000000000000000000000000000000000004000000000000000000000000000000000000000000000000000000000000000000000400000000000000000000000000000000000020000000000000000000800000000000000000000000000001000000000000000000000000000000000000000000000000000000000020000000000000000000000000000000000020000000000000000000000001000000000000000000000000000000000000000000008001000000000000100000000000020000000000000000000008000000000000000000000000000000000000000000000",
      "type": "0x2",
      "effectiveGasPrice": "0x82454f756"
    },
    {
      "transactionHash": "0x0e77fce3cec31ab2147f4083add0612eb61b5fb1d9fe13d8b5cef30a4b0d0a9e",
      "transactionIndex": "0x32",
      "blockHash": "0xff71805e71d3e116341f55f225de22035da8780c496c1aadd0eda7c722f0b8d0",
      "blockNumber": "0x514813",
      "from": "0x75D06bae37a9c349142fE7cee77804900b1C0EC3",
      "to": "0x23BAd11F1543503CB1FB5dAd05fdAF93F42d30F3",
      "cumulativeGasUsed": "0x4874cf",
      "gasUsed": "0x11489",
      "contractAddress": null,
      "logs": [
        {
          "address": "0x23BAd11F1543503CB1FB5dAd05fdAF93F42d30F3",
          "topics": [
            "0xddf252ad1be2c89b69c2b068fc378daa952ba7f163c4a11628f55a4df523b3ef",
            "0x0000000000000000000000000000000000000000000000000000000000000000",
            "0x00000000000000000000000026bfaecae4d5fa93ee1737ce1ce7d53f2a0e9b2d"
          ],
          "data": "0x0000000000000000000000000000000000000000000000000000000000989680",
          "blockHash": "0xff71805e71d3e116341f55f225de22035da8780c496c1aadd0eda7c722f0b8d0",
          "blockNumber": "0x514813",
          "transactionHash": "0x0e77fce3cec31ab2147f4083add0612eb61b5fb1d9fe13d8b5cef30a4b0d0a9e",
          "transactionIndex": "0x32",
          "logIndex": "0x5a",
          "removed": false
        }
      ],
      "status": "0x1",
      "logsBloom": "0x00000000000000000000000000000000000000000000000000000000000000000000000000000000000000000000000000000000000000000000000000000000000000000000000000000008000000000000400000000000000000000000000000000000020000000000000000000800000000000000000000000010000000000000000010000000000000000000000000000000000000000000020000000000000000000000000000000000000000000000000000000000000000000000000000000002000000000000000000000000000000000000000000000000000020010000000000000000008000000000000000000000000000002000000000000000",
      "type": "0x2",
      "effectiveGasPrice": "0x7e7bba5c0"
    },
    {
      "transactionHash": "0x08dcad751dab49c157b4d8495abc2e147ce8bee6f6db060c1e9bea3d74379ae7",
      "transactionIndex": "0x33",
      "blockHash": "0xff71805e71d3e116341f55f225de22035da8780c496c1aadd0eda7c722f0b8d0",
      "blockNumber": "0x514813",
      "from": "0x75D06bae37a9c349142fE7cee77804900b1C0EC3",
      "to": null,
      "cumulativeGasUsed": "0x54ec7d",
      "gasUsed": "0xc77ae",
      "contractAddress": "0x0f409E839a6A790aecB737E4436293Be11717f95",
      "logs": [
        {
          "address": "0x0f409E839a6A790aecB737E4436293Be11717f95",
          "topics": [
            "0x2f8788117e7eff1d82e926ec794901d17c78024a50270940304540a733656f0d",
            "0x0000000000000000000000000000000000000000000000000000000000000000",
            "0x00000000000000000000000075d06bae37a9c349142fe7cee77804900b1c0ec3",
            "0x00000000000000000000000075d06bae37a9c349142fe7cee77804900b1c0ec3"
          ],
          "data": "0x",
          "blockHash": "0xff71805e71d3e116341f55f225de22035da8780c496c1aadd0eda7c722f0b8d0",
          "blockNumber": "0x514813",
          "transactionHash": "0x08dcad751dab49c157b4d8495abc2e147ce8bee6f6db060c1e9bea3d74379ae7",
          "transactionIndex": "0x33",
          "logIndex": "0x5b",
          "removed": false
        },
        {
          "address": "0x0f409E839a6A790aecB737E4436293Be11717f95",
          "topics": [
            "0x2f8788117e7eff1d82e926ec794901d17c78024a50270940304540a733656f0d",
            "0x9f2df0fed2c77648de5860a4cc508cd0818c85b8b8a1ab4ceeef8d981c8956a6",
            "0x00000000000000000000000075d06bae37a9c349142fe7cee77804900b1c0ec3",
            "0x00000000000000000000000075d06bae37a9c349142fe7cee77804900b1c0ec3"
          ],
          "data": "0x",
          "blockHash": "0xff71805e71d3e116341f55f225de22035da8780c496c1aadd0eda7c722f0b8d0",
          "blockNumber": "0x514813",
          "transactionHash": "0x08dcad751dab49c157b4d8495abc2e147ce8bee6f6db060c1e9bea3d74379ae7",
          "transactionIndex": "0x33",
          "logIndex": "0x5c",
          "removed": false
        }
      ],
      "status": "0x1",
      "logsBloom": "0x00000004000000000000000000000000000000000000000000000010000000000000000000000000000000000000004000000000000000000000000000000000000000000000000000000000000000000000000000000000008000000000000000000000020000000000000000000800000000000000000000000000001000000000000000000000000000000000000000000000000000000000000000000000000000000000000000000000020000000000000000000800001000000000000000000000000000000000000000000008001000000000000100004000000020000000000000000000000000000000000000000000000000000000000000000000",
      "type": "0x2",
      "effectiveGasPrice": "0x7e7bba5c0"
    },
    {
      "transactionHash": "0x7a141fbd6852aecfa0ef63837fa29b0f196ebf53a4827da25ef38fcd4dd2546c",
      "transactionIndex": "0x34",
      "blockHash": "0xff71805e71d3e116341f55f225de22035da8780c496c1aadd0eda7c722f0b8d0",
      "blockNumber": "0x514813",
      "from": "0x75D06bae37a9c349142fE7cee77804900b1C0EC3",
      "to": "0x0f409E839a6A790aecB737E4436293Be11717f95",
      "cumulativeGasUsed": "0x560142",
      "gasUsed": "0x114c5",
      "contractAddress": null,
      "logs": [
        {
          "address": "0x0f409E839a6A790aecB737E4436293Be11717f95",
          "topics": [
            "0xddf252ad1be2c89b69c2b068fc378daa952ba7f163c4a11628f55a4df523b3ef",
            "0x0000000000000000000000000000000000000000000000000000000000000000",
            "0x00000000000000000000000026bfaecae4d5fa93ee1737ce1ce7d53f2a0e9b2d"
          ],
          "data": "0x0000000000000000000000000000000000000000000069e10de76676d0800000",
          "blockHash": "0xff71805e71d3e116341f55f225de22035da8780c496c1aadd0eda7c722f0b8d0",
          "blockNumber": "0x514813",
          "transactionHash": "0x7a141fbd6852aecfa0ef63837fa29b0f196ebf53a4827da25ef38fcd4dd2546c",
          "transactionIndex": "0x34",
          "logIndex": "0x5d",
          "removed": false
        }
      ],
      "status": "0x1",
      "logsBloom": "0x00000000000000000000000000000000000000000000000000000000000000000000000000000000000000000000000000000000000000000000000000000000000000000000000000000008000000000000000000000000008000000000000000000000020000000000000000000800000000000000000000000010000000000000000010000000000000000000000000000000000000000000000000000000000000000000000000000000000000000000000000000800000000000000000000000002000000000000000000000000000000000000000000004000000020010000000000000000000000000000000000000000000000002000000000000000",
      "type": "0x2",
      "effectiveGasPrice": "0x7e7bba5c0"
    },
    {
      "transactionHash": "0xc61a1b3842199dc53617e4e2cbce5331464a417234fd098e864fe97bffcf3342",
      "transactionIndex": "0x35",
      "blockHash": "0xff71805e71d3e116341f55f225de22035da8780c496c1aadd0eda7c722f0b8d0",
      "blockNumber": "0x514813",
      "from": "0x75D06bae37a9c349142fE7cee77804900b1C0EC3",
      "to": null,
      "cumulativeGasUsed": "0x6278b4",
      "gasUsed": "0xc7772",
      "contractAddress": "0xC3745bcE4b5D0977dC874832BC99108D416dCe8f",
      "logs": [
        {
          "address": "0xC3745bcE4b5D0977dC874832BC99108D416dCe8f",
          "topics": [
            "0x2f8788117e7eff1d82e926ec794901d17c78024a50270940304540a733656f0d",
            "0x0000000000000000000000000000000000000000000000000000000000000000",
            "0x00000000000000000000000075d06bae37a9c349142fe7cee77804900b1c0ec3",
            "0x00000000000000000000000075d06bae37a9c349142fe7cee77804900b1c0ec3"
          ],
          "data": "0x",
          "blockHash": "0xff71805e71d3e116341f55f225de22035da8780c496c1aadd0eda7c722f0b8d0",
          "blockNumber": "0x514813",
          "transactionHash": "0xc61a1b3842199dc53617e4e2cbce5331464a417234fd098e864fe97bffcf3342",
          "transactionIndex": "0x35",
          "logIndex": "0x5e",
          "removed": false
        },
        {
          "address": "0xC3745bcE4b5D0977dC874832BC99108D416dCe8f",
          "topics": [
            "0x2f8788117e7eff1d82e926ec794901d17c78024a50270940304540a733656f0d",
            "0x9f2df0fed2c77648de5860a4cc508cd0818c85b8b8a1ab4ceeef8d981c8956a6",
            "0x00000000000000000000000075d06bae37a9c349142fe7cee77804900b1c0ec3",
            "0x00000000000000000000000075d06bae37a9c349142fe7cee77804900b1c0ec3"
          ],
          "data": "0x",
          "blockHash": "0xff71805e71d3e116341f55f225de22035da8780c496c1aadd0eda7c722f0b8d0",
          "blockNumber": "0x514813",
          "transactionHash": "0xc61a1b3842199dc53617e4e2cbce5331464a417234fd098e864fe97bffcf3342",
          "transactionIndex": "0x35",
          "logIndex": "0x5f",
          "removed": false
        }
      ],
      "status": "0x1",
      "logsBloom": "0x00000004000000000000000000000000000000000000000000000010000000000000000000000000000000000000004000000000000000000000000000000000000000000000000000000000000000000000000000000000000000000000000000000000020000000000000000000800000000000000000000000000001000000000000000000000000000000000000000000000000000000000010000000000000000000000000800000000020000000000000000000000001000000000000000000000000000000000000000000008001000000000000100000000000020000000000000000000000800000000000000000000000000000000000000000000",
      "type": "0x2",
      "effectiveGasPrice": "0x7e7bba5c0"
    },
    {
      "transactionHash": "0x4daba0a5ac68185fe5d71b8cc3fda1911c4ce60926c97cbf18fd14ed456a6bbb",
      "transactionIndex": "0x36",
      "blockHash": "0xff71805e71d3e116341f55f225de22035da8780c496c1aadd0eda7c722f0b8d0",
      "blockNumber": "0x514813",
      "from": "0x75D06bae37a9c349142fE7cee77804900b1C0EC3",
      "to": "0xC3745bcE4b5D0977dC874832BC99108D416dCe8f",
      "cumulativeGasUsed": "0x638d3d",
      "gasUsed": "0x11489",
      "contractAddress": null,
      "logs": [
        {
          "address": "0xC3745bcE4b5D0977dC874832BC99108D416dCe8f",
          "topics": [
            "0xddf252ad1be2c89b69c2b068fc378daa952ba7f163c4a11628f55a4df523b3ef",
            "0x0000000000000000000000000000000000000000000000000000000000000000",
            "0x00000000000000000000000026bfaecae4d5fa93ee1737ce1ce7d53f2a0e9b2d"
          ],
          "data": "0x000000000000000000000000000000000000000000000000000000003b9aca00",
          "blockHash": "0xff71805e71d3e116341f55f225de22035da8780c496c1aadd0eda7c722f0b8d0",
          "blockNumber": "0x514813",
          "transactionHash": "0x4daba0a5ac68185fe5d71b8cc3fda1911c4ce60926c97cbf18fd14ed456a6bbb",
          "transactionIndex": "0x36",
          "logIndex": "0x60",
          "removed": false
        }
      ],
      "status": "0x1",
      "logsBloom": "0x00000000000000000000000000000000000000000000000000000000000000000000000000000000000000000000000000000000000000000000000000000000000000000000000000000008000000000000000000000000000000000000000000000000020000000000000000000800000000000000000000000010000000000000000010000000000000000000000000000000000000000000010000000000000000000000000800000000000000000000000000000000000000000000000000000002000000000000000000000000000000000000000000000000000020010000000000000000000800000000000000000000000000002000000000000000",
      "type": "0x2",
      "effectiveGasPrice": "0x7e7bba5c0"
    },
    {
      "transactionHash": "0x8ccf71023d9498ca50acc7911d39644103f4ed4efae066b9f454a8026f9d5c05",
      "transactionIndex": "0x37",
      "blockHash": "0xff71805e71d3e116341f55f225de22035da8780c496c1aadd0eda7c722f0b8d0",
      "blockNumber": "0x514813",
      "from": "0x75D06bae37a9c349142fE7cee77804900b1C0EC3",
      "to": "0x26bfAecAe4D5fa93eE1737ce1Ce7D53F2a0E9b2d",
      "cumulativeGasUsed": "0x6441f5",
      "gasUsed": "0xb4b8",
      "contractAddress": null,
      "logs": [],
      "status": "0x1",
      "logsBloom": "0x00000000000000000000000000000000000000000000000000000000000000000000000000000000000000000000000000000000000000000000000000000000000000000000000000000000000000000000000000000000000000000000000000000000000000000000000000000000000000000000000000000000000000000000000000000000000000000000000000000000000000000000000000000000000000000000000000000000000000000000000000000000000000000000000000000000000000000000000000000000000000000000000000000000000000000000000000000000000000000000000000000000000000000000000000000000",
      "type": "0x2",
      "effectiveGasPrice": "0x7e7bba5c0"
    },
    {
      "transactionHash": "0x1b6bf4f995c7eeb7ef2912c78d0f48980033aca18f963f4289d198b1e15f2b71",
      "transactionIndex": "0x38",
      "blockHash": "0xff71805e71d3e116341f55f225de22035da8780c496c1aadd0eda7c722f0b8d0",
      "blockNumber": "0x514813",
      "from": "0x75D06bae37a9c349142fE7cee77804900b1C0EC3",
      "to": "0x26bfAecAe4D5fa93eE1737ce1Ce7D53F2a0E9b2d",
      "cumulativeGasUsed": "0x64f6f5",
      "gasUsed": "0xb500",
      "contractAddress": null,
      "logs": [],
      "status": "0x1",
      "logsBloom": "0x00000000000000000000000000000000000000000000000000000000000000000000000000000000000000000000000000000000000000000000000000000000000000000000000000000000000000000000000000000000000000000000000000000000000000000000000000000000000000000000000000000000000000000000000000000000000000000000000000000000000000000000000000000000000000000000000000000000000000000000000000000000000000000000000000000000000000000000000000000000000000000000000000000000000000000000000000000000000000000000000000000000000000000000000000000000",
      "type": "0x2",
      "effectiveGasPrice": "0x7e7bba5c0"
    },
    {
      "transactionHash": "0xf1dba0810833709b8209d00de373a16c71eea397e88a26b8602c60f4f6bcc420",
      "transactionIndex": "0x39",
      "blockHash": "0xff71805e71d3e116341f55f225de22035da8780c496c1aadd0eda7c722f0b8d0",
      "blockNumber": "0x514813",
      "from": "0x75D06bae37a9c349142fE7cee77804900b1C0EC3",
      "to": "0x26bfAecAe4D5fa93eE1737ce1Ce7D53F2a0E9b2d",
      "cumulativeGasUsed": "0x65abb9",
      "gasUsed": "0xb4c4",
      "contractAddress": null,
      "logs": [],
      "status": "0x1",
      "logsBloom": "0x00000000000000000000000000000000000000000000000000000000000000000000000000000000000000000000000000000000000000000000000000000000000000000000000000000000000000000000000000000000000000000000000000000000000000000000000000000000000000000000000000000000000000000000000000000000000000000000000000000000000000000000000000000000000000000000000000000000000000000000000000000000000000000000000000000000000000000000000000000000000000000000000000000000000000000000000000000000000000000000000000000000000000000000000000000000",
      "type": "0x2",
      "effectiveGasPrice": "0x7e7bba5c0"
    }
  ],
  "libraries": [],
  "pending": [],
  "returns": {},
  "timestamp": 1708426537,
  "chain": 11155111,
  "multi": false,
  "commit": "20dfd0b"
}