{
  "transactions": [
    {
      "hash": "0x9c37aa5e8e9c3cf02482becc283e965ed2b99e893300bd0e1970e8146179da4a",
      "transactionType": "CREATE",
      "contractName": "Faucet",
      "contractAddress": "0x26bfAecAe4D5fa93eE1737ce1Ce7D53F2a0E9b2d",
      "function": null,
      "arguments": null,
      "transaction": {
        "type": "0x02",
        "from": "0x75d06bae37a9c349142fe7cee77804900b1c0ec3",
        "gas": "0x827d7",
        "value": "0x0",
        "data": "0x608060405234801561001057600080fd5b50338061003757604051631e4fbdf760e01b81526000600482015260240160405180910390fd5b61004081610046565b50610096565b600080546001600160a01b038381166001600160a01b0319831681178455604051919092169283917f8be0079c531659141344cd1fd0a4f28419497f9722a3daafe3b4186f6b6457e09190a35050565b610602806100a56000396000f3fe608060405234801561001057600080fd5b50600436106100885760003560e01c8063d2fafb191161005b578063d2fafb19146100f8578063eab23a401461010b578063ece5313214610136578063f2fde38b1461014957600080fd5b806367a5cd061461008d578063715018a6146100a25780638da5cb5b146100aa578063b9f0bf66146100ca575b600080fd5b6100a061009b3660046104eb565b61015c565b005b6100a0610331565b6000546040516001600160a01b0390911681526020015b60405180910390f35b6100ea6100d83660046104eb565b60016020526000908152604090205481565b6040519081526020016100c1565b6100a061010636600461050d565b610345565b6100ea610119366004610537565b600260209081526000928352604080842090915290825290205481565b6100a06101443660046104eb565b610369565b6100a06101573660046104eb565b610414565b3360009081526002602090815260408083206001600160a01b0385168452909152902054620151809061018f904261056a565b10156101d65760405162461bcd60e51b81526020600482015260116024820152704552525f445249505f5448524f54544c4560781b60448201526064015b60405180910390fd5b6001600160a01b038116600081815260016020526040908190205490516370a0823160e01b81523060048201529091906370a0823190602401602060405180830381865afa15801561022c573d6000803e3d6000fd5b505050506040513d601f19601f820116820180604052508101906102509190610591565b10156102915760405162461bcd60e51b815260206004820152601060248201526f11549497d391515114d7d4915192531360821b60448201526064016101cd565b3360008181526002602090815260408083206001600160a01b03861680855290835281842042905560019092529182902054915163a9059cbb60e01b8152600481019390935260248301919091529063a9059cbb906044015b6020604051808303816000875af1158015610309573d6000803e3d6000fd5b505050506040513d601f19601f8201168201806040525081019061032d91906105aa565b5050565b610339610452565b610343600061047f565b565b61034d610452565b6001600160a01b03909116600090815260016020526040902055565b610371610452565b6040516370a0823160e01b81523060048201526001600160a01b0382169063a9059cbb90339083906370a0823190602401602060405180830381865afa1580156103bf573d6000803e3d6000fd5b505050506040513d601f19601f820116820180604052508101906103e39190610591565b6040516001600160e01b031960e085901b1681526001600160a01b03909216600483015260248201526044016102ea565b61041c610452565b6001600160a01b03811661044657604051631e4fbdf760e01b8152600060048201526024016101cd565b61044f8161047f565b50565b6000546001600160a01b031633146103435760405163118cdaa760e01b81523360048201526024016101cd565b600080546001600160a01b038381166001600160a01b0319831681178455604051919092169283917f8be0079c531659141344cd1fd0a4f28419497f9722a3daafe3b4186f6b6457e09190a35050565b80356001600160a01b03811681146104e657600080fd5b919050565b6000602082840312156104fd57600080fd5b610506826104cf565b9392505050565b6000806040838503121561052057600080fd5b610529836104cf565b946020939093013593505050565b6000806040838503121561054a57600080fd5b610553836104cf565b9150610561602084016104cf565b90509250929050565b8181038181111561058b57634e487b7160e01b600052601160045260246000fd5b92915050565b6000602082840312156105a357600080fd5b5051919050565b6000602082840312156105bc57600080fd5b8151801515811461050657600080fdfea2646970667358221220c66b496b3ee4b046653fc1cc8034706683013da30b7b4c75a9380c25ff2e409164736f6c63430008150033",
        "nonce": "0xa",
        "accessList": []
      },
      "additionalContracts": [],
      "isFixedGasLimit": false
    },
    {
      "hash": "0xa1cb06de7aaa3a378457a3aa097176c5a09fcb3812d5aab4b4fc4984caa6a218",
      "transactionType": "CREATE",
      "contractName": "TestToken",
      "contractAddress": "0xB77EB1A70A96fDAAeB31DB1b42F2b8b5846b2613",
      "function": null,
      "arguments": [
        "\"Dai Stablecoin\"",
        "\"DAI\"",
        "18"
      ],
      "transaction": {
        "type": "0x02",
        "from": "0x75d06bae37a9c349142fe7cee77804900b1c0ec3",
        "gas": "0x1033ab",
        "value": "0x0",
        "data": "0x60806040523480156200001157600080fd5b5060405162000f7b38038062000f7b833981016040819052620000349162000228565b828260036200004483826200033c565b5060046200005382826200033c565b506200006591506000905033620000b0565b50620000927f9f2df0fed2c77648de5860a4cc508cd0818c85b8b8a1ab4ceeef8d981c8956a633620000b0565b506006805460ff191660ff9290921691909117905550620004089050565b60008281526005602090815260408083206001600160a01b038516845290915281205460ff16620001595760008381526005602090815260408083206001600160a01b03861684529091529020805460ff19166001179055620001103390565b6001600160a01b0316826001600160a01b0316847f2f8788117e7eff1d82e926ec794901d17c78024a50270940304540a733656f0d60405160405180910390a45060016200015d565b5060005b92915050565b634e487b7160e01b600052604160045260246000fd5b600082601f8301126200018b57600080fd5b81516001600160401b0380821115620001a857620001a862000163565b604051601f8301601f19908116603f01168101908282118183101715620001d357620001d362000163565b81604052838152602092508683858801011115620001f057600080fd5b600091505b83821015620002145785820183015181830184015290820190620001f5565b600093810190920192909252949350505050565b6000806000606084860312156200023e57600080fd5b83516001600160401b03808211156200025657600080fd5b620002648783880162000179565b945060208601519150808211156200027b57600080fd5b506200028a8682870162000179565b925050604084015160ff81168114620002a257600080fd5b809150509250925092565b600181811c90821680620002c257607f821691505b602082108103620002e357634e487b7160e01b600052602260045260246000fd5b50919050565b601f8211156200033757600081815260208120601f850160051c81016020861015620003125750805b601f850160051c820191505b8181101562000333578281556001016200031e565b5050505b505050565b81516001600160401b0381111562000358576200035862000163565b6200037081620003698454620002ad565b84620002e9565b602080601f831160018114620003a857600084156200038f5750858301515b600019600386901b1c1916600185901b17855562000333565b600085815260208120601f198616915b82811015620003d957888601518255948401946001909101908401620003b8565b5085821015620003f85787850151600019600388901b60f8161c191681555b5050505050600190811b01905550565b610b6380620004186000396000f3fe608060405234801561001057600080fd5b50600436106101165760003560e01c806340c10f19116100a2578063a217fddf11610071578063a217fddf14610247578063a9059cbb1461024f578063d539139314610262578063d547741f14610289578063dd62ed3e1461029c57600080fd5b806340c10f19146101f057806370a082311461020357806391d148541461022c57806395d89b411461023f57600080fd5b806323b872dd116100e957806323b872dd1461017d578063248a9ca3146101905780632f2ff15d146101b3578063313ce567146101c857806336568abe146101dd57600080fd5b806301ffc9a71461011b57806306fdde0314610143578063095ea7b31461015857806318160ddd1461016b575b600080fd5b61012e610129366004610947565b6102d5565b60405190151581526020015b60405180910390f35b61014b61030c565b60405161013a9190610978565b61012e6101663660046109e2565b61039e565b6002545b60405190815260200161013a565b61012e61018b366004610a0c565b6103b6565b61016f61019e366004610a48565b60009081526005602052604090206001015490565b6101c66101c1366004610a61565b6103da565b005b60065460405160ff909116815260200161013a565b6101c66101eb366004610a61565b610405565b6101c66101fe3660046109e2565b61043d565b61016f610211366004610a8d565b6001600160a01b031660009081526020819052604090205490565b61012e61023a366004610a61565b610471565b61014b61049c565b61016f600081565b61012e61025d3660046109e2565b6104ab565b61016f7f9f2df0fed2c77648de5860a4cc508cd0818c85b8b8a1ab4ceeef8d981c8956a681565b6101c6610297366004610a61565b6104b9565b61016f6102aa366004610aa8565b6001600160a01b03918216600090815260016020908152604080832093909416825291909152205490565b60006001600160e01b03198216637965db0b60e01b148061030657506301ffc9a760e01b6001600160e01b03198316145b92915050565b60606003805461031b90610ad2565b80601f016020809104026020016040519081016040528092919081815260200182805461034790610ad2565b80156103945780601f1061036957610100808354040283529160200191610394565b820191906000526020600020905b81548152906001019060200180831161037757829003601f168201915b5050505050905090565b6000336103ac8185856104de565b5060019392505050565b6000336103c48582856104eb565b6103cf858585610568565b506001949350505050565b6000828152600560205260409020600101546103f5816105c7565b6103ff83836105d4565b50505050565b6001600160a01b038116331461042e5760405163334bd91960e11b815260040160405180910390fd5b6104388282610668565b505050565b7f9f2df0fed2c77648de5860a4cc508cd0818c85b8b8a1ab4ceeef8d981c8956a6610467816105c7565b61043883836106d5565b60009182526005602090815260408084206001600160a01b0393909316845291905290205460ff1690565b60606004805461031b90610ad2565b6000336103ac818585610568565b6000828152600560205260409020600101546104d4816105c7565b6103ff8383610668565b610438838383600161070f565b6001600160a01b0383811660009081526001602090815260408083209386168352929052205460001981146103ff578181101561055957604051637dc7a0d960e11b81526001600160a01b038416600482015260248101829052604481018390526064015b60405180910390fd5b6103ff8484848403600061070f565b6001600160a01b03831661059257604051634b637e8f60e11b815260006004820152602401610550565b6001600160a01b0382166105bc5760405163ec442f0560e01b815260006004820152602401610550565b6104388383836107e4565b6105d1813361090e565b50565b60006105e08383610471565b6106605760008381526005602090815260408083206001600160a01b03861684529091529020805460ff191660011790556106183390565b6001600160a01b0316826001600160a01b0316847f2f8788117e7eff1d82e926ec794901d17c78024a50270940304540a733656f0d60405160405180910390a4506001610306565b506000610306565b60006106748383610471565b156106605760008381526005602090815260408083206001600160a01b0386168085529252808320805460ff1916905551339286917ff6391f5c32d9c69d2a47ea670b442974b53935d1edc7fd64eb21e047a839171b9190a4506001610306565b6001600160a01b0382166106ff5760405163ec442f0560e01b815260006004820152602401610550565b61070b600083836107e4565b5050565b6001600160a01b0384166107395760405163e602df0560e01b815260006004820152602401610550565b6001600160a01b03831661076357604051634a1406b160e11b815260006004820152602401610550565b6001600160a01b03808516600090815260016020908152604080832093871683529290522082905580156103ff57826001600160a01b0316846001600160a01b03167f8c5be1e5ebec7d5bd14f71427d1e84f3dd0314c0f7b2291e5b200ac8c7c3b925846040516107d691815260200190565b60405180910390a350505050565b6001600160a01b03831661080f5780600260008282546108049190610b0c565b909155506108819050565b6001600160a01b038316600090815260208190526040902054818110156108625760405163391434e360e21b81526001600160a01b03851660048201526024810182905260448101839052606401610550565b6001600160a01b03841660009081526020819052604090209082900390555b6001600160a01b03821661089d576002805482900390556108bc565b6001600160a01b03821660009081526020819052604090208054820190555b816001600160a01b0316836001600160a01b03167fddf252ad1be2c89b69c2b068fc378daa952ba7f163c4a11628f55a4df523b3ef8360405161090191815260200190565b60405180910390a3505050565b6109188282610471565b61070b5760405163e2517d3f60e01b81526001600160a01b038216600482015260248101839052604401610550565b60006020828403121561095957600080fd5b81356001600160e01b03198116811461097157600080fd5b9392505050565b600060208083528351808285015260005b818110156109a557858101830151858201604001528201610989565b506000604082860101526040601f19601f8301168501019250505092915050565b80356001600160a01b03811681146109dd57600080fd5b919050565b600080604083850312156109f557600080fd5b6109fe836109c6565b946020939093013593505050565b600080600060608486031215610a2157600080fd5b610a2a846109c6565b9250610a38602085016109c6565b9150604084013590509250925092565b600060208284031215610a5a57600080fd5b5035919050565b60008060408385031215610a7457600080fd5b82359150610a84602084016109c6565b90509250929050565b600060208284031215610a9f57600080fd5b610971826109c6565b60008060408385031215610abb57600080fd5b610ac4836109c6565b9150610a84602084016109c6565b600181811c90821680610ae657607f821691505b602082108103610b0657634e487b7160e01b600052602260045260246000fd5b50919050565b8082018082111561030657634e487b7160e01b600052601160045260246000fdfea2646970667358221220c3fd4d0a13c1aeda53523af1addf290507128a68e94526bd340b5911d55a706b64736f6c63430008150033000000000000000000000000000000000000000000000000000000000000006000000000000000000000000000000000000000000000000000000000000000a00000000000000000000000000000000000000000000000000000000000000012000000000000000000000000000000000000000000000000000000000000000e44616920537461626c65636f696e00000000000000000000000000000000000000000000000000000000000000000000000000000000000000000000000000034441490000000000000000000000000000000000000000000000000000000000",
        "nonce": "0xb",
        "accessList": []
      },
      "additionalContracts": [],
      "isFixedGasLimit": false
    },
    {
      "hash": "0xc846d88844bdced3a8160f7f38009a50e7368b20e3c08ba3b26e398478d7dff2",
      "transactionType": "CALL",
      "contractName": "src/TestToken.sol:TestToken",
      "contractAddress": "0xB77EB1A70A96fDAAeB31DB1b42F2b8b5846b2613",
      "function": "mint(address,uint256)",
      "arguments": [
        "0x26bfAecAe4D5fa93eE1737ce1Ce7D53F2a0E9b2d",
        "100000000000000000000000"
      ],
      "transaction": {
        "type": "0x02",
        "from": "0x75d06bae37a9c349142fe7cee77804900b1c0ec3",
        "to": "0xb77eb1a70a96fdaaeb31db1b42f2b8b5846b2613",
        "gas": "0x17e49",
        "value": "0x0",
        "data": "0x40c10f1900000000000000000000000026bfaecae4d5fa93ee1737ce1ce7d53f2a0e9b2d00000000000000000000000000000000000000000000152d02c7e14af6800000",
        "nonce": "0xc",
        "accessList": []
      },
      "additionalContracts": [],
      "isFixedGasLimit": false
    },
    {
      "hash": "0x8ddffc9884c59825a4b6622e423f57a6a5ad95d554dffd8893c2be8a74ba75d2",
      "transactionType": "CREATE",
      "contractName": "TestToken",
      "contractAddress": "0x80D6d3946ed8A1Da4E226aa21CCdDc32bd127d1A",
      "function": null,
      "arguments": [
        "\"USD Coin\"",
        "\"USDC\"",
        "6"
      ],
      "transaction": {
        "type": "0x02",
        "from": "0x75d06bae37a9c349142fe7cee77804900b1c0ec3",
        "gas": "0x10335d",
        "value": "0x0",
        "data": "0x60806040523480156200001157600080fd5b5060405162000f7b38038062000f7b833981016040819052620000349162000228565b828260036200004483826200033c565b5060046200005382826200033c565b506200006591506000905033620000b0565b50620000927f9f2df0fed2c77648de5860a4cc508cd0818c85b8b8a1ab4ceeef8d981c8956a633620000b0565b506006805460ff191660ff9290921691909117905550620004089050565b60008281526005602090815260408083206001600160a01b038516845290915281205460ff16620001595760008381526005602090815260408083206001600160a01b03861684529091529020805460ff19166001179055620001103390565b6001600160a01b0316826001600160a01b0316847f2f8788117e7eff1d82e926ec794901d17c78024a50270940304540a733656f0d60405160405180910390a45060016200015d565b5060005b92915050565b634e487b7160e01b600052604160045260246000fd5b600082601f8301126200018b57600080fd5b81516001600160401b0380821115620001a857620001a862000163565b604051601f8301601f19908116603f01168101908282118183101715620001d357620001d362000163565b81604052838152602092508683858801011115620001f057600080fd5b600091505b83821015620002145785820183015181830184015290820190620001f5565b600093810190920192909252949350505050565b6000806000606084860312156200023e57600080fd5b83516001600160401b03808211156200025657600080fd5b620002648783880162000179565b945060208601519150808211156200027b57600080fd5b506200028a8682870162000179565b925050604084015160ff81168114620002a257600080fd5b809150509250925092565b600181811c90821680620002c257607f821691505b602082108103620002e357634e487b7160e01b600052602260045260246000fd5b50919050565b601f8211156200033757600081815260208120601f850160051c81016020861015620003125750805b601f850160051c820191505b8181101562000333578281556001016200031e565b5050505b505050565b81516001600160401b0381111562000358576200035862000163565b6200037081620003698454620002ad565b84620002e9565b602080601f831160018114620003a857600084156200038f5750858301515b600019600386901b1c1916600185901b17855562000333565b600085815260208120601f198616915b82811015620003d957888601518255948401946001909101908401620003b8565b5085821015620003f85787850151600019600388901b60f8161c191681555b5050505050600190811b01905550565b610b6380620004186000396000f3fe608060405234801561001057600080fd5b50600436106101165760003560e01c806340c10f19116100a2578063a217fddf11610071578063a217fddf14610247578063a9059cbb1461024f578063d539139314610262578063d547741f14610289578063dd62ed3e1461029c57600080fd5b806340c10f19146101f057806370a082311461020357806391d148541461022c57806395d89b411461023f57600080fd5b806323b872dd116100e957806323b872dd1461017d578063248a9ca3146101905780632f2ff15d146101b3578063313ce567146101c857806336568abe146101dd57600080fd5b806301ffc9a71461011b57806306fdde0314610143578063095ea7b31461015857806318160ddd1461016b575b600080fd5b61012e610129366004610947565b6102d5565b60405190151581526020015b60405180910390f35b61014b61030c565b60405161013a9190610978565b61012e6101663660046109e2565b61039e565b6002545b60405190815260200161013a565b61012e61018b366004610a0c565b6103b6565b61016f61019e366004610a48565b60009081526005602052604090206001015490565b6101c66101c1366004610a61565b6103da565b005b60065460405160ff909116815260200161013a565b6101c66101eb366004610a61565b610405565b6101c66101fe3660046109e2565b61043d565b61016f610211366004610a8d565b6001600160a01b031660009081526020819052604090205490565b61012e61023a366004610a61565b610471565b61014b61049c565b61016f600081565b61012e61025d3660046109e2565b6104ab565b61016f7f9f2df0fed2c77648de5860a4cc508cd0818c85b8b8a1ab4ceeef8d981c8956a681565b6101c6610297366004610a61565b6104b9565b61016f6102aa366004610aa8565b6001600160a01b03918216600090815260016020908152604080832093909416825291909152205490565b60006001600160e01b03198216637965db0b60e01b148061030657506301ffc9a760e01b6001600160e01b03198316145b92915050565b60606003805461031b90610ad2565b80601f016020809104026020016040519081016040528092919081815260200182805461034790610ad2565b80156103945780601f1061036957610100808354040283529160200191610394565b820191906000526020600020905b81548152906001019060200180831161037757829003601f168201915b5050505050905090565b6000336103ac8185856104de565b5060019392505050565b6000336103c48582856104eb565b6103cf858585610568565b506001949350505050565b6000828152600560205260409020600101546103f5816105c7565b6103ff83836105d4565b50505050565b6001600160a01b038116331461042e5760405163334bd91960e11b815260040160405180910390fd5b6104388282610668565b505050565b7f9f2df0fed2c77648de5860a4cc508cd0818c85b8b8a1ab4ceeef8d981c8956a6610467816105c7565b61043883836106d5565b60009182526005602090815260408084206001600160a01b0393909316845291905290205460ff1690565b60606004805461031b90610ad2565b6000336103ac818585610568565b6000828152600560205260409020600101546104d4816105c7565b6103ff8383610668565b610438838383600161070f565b6001600160a01b0383811660009081526001602090815260408083209386168352929052205460001981146103ff578181101561055957604051637dc7a0d960e11b81526001600160a01b038416600482015260248101829052604481018390526064015b60405180910390fd5b6103ff8484848403600061070f565b6001600160a01b03831661059257604051634b637e8f60e11b815260006004820152602401610550565b6001600160a01b0382166105bc5760405163ec442f0560e01b815260006004820152602401610550565b6104388383836107e4565b6105d1813361090e565b50565b60006105e08383610471565b6106605760008381526005602090815260408083206001600160a01b03861684529091529020805460ff191660011790556106183390565b6001600160a01b0316826001600160a01b0316847f2f8788117e7eff1d82e926ec794901d17c78024a50270940304540a733656f0d60405160405180910390a4506001610306565b506000610306565b60006106748383610471565b156106605760008381526005602090815260408083206001600160a01b0386168085529252808320805460ff1916905551339286917ff6391f5c32d9c69d2a47ea670b442974b53935d1edc7fd64eb21e047a839171b9190a4506001610306565b6001600160a01b0382166106ff5760405163ec442f0560e01b815260006004820152602401610550565b61070b600083836107e4565b5050565b6001600160a01b0384166107395760405163e602df0560e01b815260006004820152602401610550565b6001600160a01b03831661076357604051634a1406b160e11b815260006004820152602401610550565b6001600160a01b03808516600090815260016020908152604080832093871683529290522082905580156103ff57826001600160a01b0316846001600160a01b03167f8c5be1e5ebec7d5bd14f71427d1e84f3dd0314c0f7b2291e5b200ac8c7c3b925846040516107d691815260200190565b60405180910390a350505050565b6001600160a01b03831661080f5780600260008282546108049190610b0c565b909155506108819050565b6001600160a01b038316600090815260208190526040902054818110156108625760405163391434e360e21b81526001600160a01b03851660048201526024810182905260448101839052606401610550565b6001600160a01b03841660009081526020819052604090209082900390555b6001600160a01b03821661089d576002805482900390556108bc565b6001600160a01b03821660009081526020819052604090208054820190555b816001600160a01b0316836001600160a01b03167fddf252ad1be2c89b69c2b068fc378daa952ba7f163c4a11628f55a4df523b3ef8360405161090191815260200190565b60405180910390a3505050565b6109188282610471565b61070b5760405163e2517d3f60e01b81526001600160a01b038216600482015260248101839052604401610550565b60006020828403121561095957600080fd5b81356001600160e01b03198116811461097157600080fd5b9392505050565b600060208083528351808285015260005b818110156109a557858101830151858201604001528201610989565b506000604082860101526040601f19601f8301168501019250505092915050565b80356001600160a01b03811681146109dd57600080fd5b919050565b600080604083850312156109f557600080fd5b6109fe836109c6565b946020939093013593505050565b600080600060608486031215610a2157600080fd5b610a2a846109c6565b9250610a38602085016109c6565b9150604084013590509250925092565b600060208284031215610a5a57600080fd5b5035919050565b60008060408385031215610a7457600080fd5b82359150610a84602084016109c6565b90509250929050565b600060208284031215610a9f57600080fd5b610971826109c6565b60008060408385031215610abb57600080fd5b610ac4836109c6565b9150610a84602084016109c6565b600181811c90821680610ae657607f821691505b602082108103610b0657634e487b7160e01b600052602260045260246000fd5b50919050565b8082018082111561030657634e487b7160e01b600052601160045260246000fdfea2646970667358221220c3fd4d0a13c1aeda53523af1addf290507128a68e94526bd340b5911d55a706b64736f6c63430008150033000000000000000000000000000000000000000000000000000000000000006000000000000000000000000000000000000000000000000000000000000000a00000000000000000000000000000000000000000000000000000000000000006000000000000000000000000000000000000000000000000000000000000000855534420436f696e00000000000000000000000000000000000000000000000000000000000000000000000000000000000000000000000000000000000000045553444300000000000000000000000000000000000000000000000000000000",
        "nonce": "0xd",
        "accessList": []
      },
      "additionalContracts": [],
      "isFixedGasLimit": false
    },
    {
      "hash": "0x96628afdf88b43631c6e9937e6789e29162dc48c55588ae97169318978d99dec",
      "transactionType": "CALL",
      "contractName": "src/TestToken.sol:TestToken",
      "contractAddress": "0x80D6d3946ed8A1Da4E226aa21CCdDc32bd127d1A",
      "function": "mint(address,uint256)",
      "arguments": [
        "0x26bfAecAe4D5fa93eE1737ce1Ce7D53F2a0E9b2d",
        "100000000000"
      ],
      "transaction": {
        "type": "0x02",
        "from": "0x75d06bae37a9c349142fe7cee77804900b1c0ec3",
        "to": "0x80d6d3946ed8a1da4e226aa21ccddc32bd127d1a",
        "gas": "0x17e07",
        "value": "0x0",
        "data": "0x40c10f1900000000000000000000000026bfaecae4d5fa93ee1737ce1ce7d53f2a0e9b2d000000000000000000000000000000000000000000000000000000174876e800",
        "nonce": "0xe",
        "accessList": []
      },
      "additionalContracts": [],
      "isFixedGasLimit": false
    },
    {
      "hash": "0x93fbbe94ad2b1ee2117de0c3a16880951be8bd1b123879fba0cd134591d6f1e4",
      "transactionType": "CREATE",
      "contractName": "TestToken",
      "contractAddress": "0x6bF294B80C7d8Dc72DEE762af5d01260B756A051",
      "function": null,
      "arguments": [
        "\"Tether USD\"",
        "\"USDT\"",
        "6"
      ],
      "transaction": {
        "type": "0x02",
        "from": "0x75d06bae37a9c349142fe7cee77804900b1c0ec3",
        "gas": "0x10337c",
        "value": "0x0",
        "data": "0x60806040523480156200001157600080fd5b5060405162000f7b38038062000f7b833981016040819052620000349162000228565b828260036200004483826200033c565b5060046200005382826200033c565b506200006591506000905033620000b0565b50620000927f9f2df0fed2c77648de5860a4cc508cd0818c85b8b8a1ab4ceeef8d981c8956a633620000b0565b506006805460ff191660ff9290921691909117905550620004089050565b60008281526005602090815260408083206001600160a01b038516845290915281205460ff16620001595760008381526005602090815260408083206001600160a01b03861684529091529020805460ff19166001179055620001103390565b6001600160a01b0316826001600160a01b0316847f2f8788117e7eff1d82e926ec794901d17c78024a50270940304540a733656f0d60405160405180910390a45060016200015d565b5060005b92915050565b634e487b7160e01b600052604160045260246000fd5b600082601f8301126200018b57600080fd5b81516001600160401b0380821115620001a857620001a862000163565b604051601f8301601f19908116603f01168101908282118183101715620001d357620001d362000163565b81604052838152602092508683858801011115620001f057600080fd5b600091505b83821015620002145785820183015181830184015290820190620001f5565b600093810190920192909252949350505050565b6000806000606084860312156200023e57600080fd5b83516001600160401b03808211156200025657600080fd5b620002648783880162000179565b945060208601519150808211156200027b57600080fd5b506200028a8682870162000179565b925050604084015160ff81168114620002a257600080fd5b809150509250925092565b600181811c90821680620002c257607f821691505b602082108103620002e357634e487b7160e01b600052602260045260246000fd5b50919050565b601f8211156200033757600081815260208120601f850160051c81016020861015620003125750805b601f850160051c820191505b8181101562000333578281556001016200031e565b5050505b505050565b81516001600160401b0381111562000358576200035862000163565b6200037081620003698454620002ad565b84620002e9565b602080601f831160018114620003a857600084156200038f5750858301515b600019600386901b1c1916600185901b17855562000333565b600085815260208120601f198616915b82811015620003d957888601518255948401946001909101908401620003b8565b5085821015620003f85787850151600019600388901b60f8161c191681555b5050505050600190811b01905550565b610b6380620004186000396000f3fe608060405234801561001057600080fd5b50600436106101165760003560e01c806340c10f19116100a2578063a217fddf11610071578063a217fddf14610247578063a9059cbb1461024f578063d539139314610262578063d547741f14610289578063dd62ed3e1461029c57600080fd5b806340c10f19146101f057806370a082311461020357806391d148541461022c57806395d89b411461023f57600080fd5b806323b872dd116100e957806323b872dd1461017d578063248a9ca3146101905780632f2ff15d146101b3578063313ce567146101c857806336568abe146101dd57600080fd5b806301ffc9a71461011b57806306fdde0314610143578063095ea7b31461015857806318160ddd1461016b575b600080fd5b61012e610129366004610947565b6102d5565b60405190151581526020015b60405180910390f35b61014b61030c565b60405161013a9190610978565b61012e6101663660046109e2565b61039e565b6002545b60405190815260200161013a565b61012e61018b366004610a0c565b6103b6565b61016f61019e366004610a48565b60009081526005602052604090206001015490565b6101c66101c1366004610a61565b6103da565b005b60065460405160ff909116815260200161013a565b6101c66101eb366004610a61565b610405565b6101c66101fe3660046109e2565b61043d565b61016f610211366004610a8d565b6001600160a01b031660009081526020819052604090205490565b61012e61023a366004610a61565b610471565b61014b61049c565b61016f600081565b61012e61025d3660046109e2565b6104ab565b61016f7f9f2df0fed2c77648de5860a4cc508cd0818c85b8b8a1ab4ceeef8d981c8956a681565b6101c6610297366004610a61565b6104b9565b61016f6102aa366004610aa8565b6001600160a01b03918216600090815260016020908152604080832093909416825291909152205490565b60006001600160e01b03198216637965db0b60e01b148061030657506301ffc9a760e01b6001600160e01b03198316145b92915050565b60606003805461031b90610ad2565b80601f016020809104026020016040519081016040528092919081815260200182805461034790610ad2565b80156103945780601f1061036957610100808354040283529160200191610394565b820191906000526020600020905b81548152906001019060200180831161037757829003601f168201915b5050505050905090565b6000336103ac8185856104de565b5060019392505050565b6000336103c48582856104eb565b6103cf858585610568565b506001949350505050565b6000828152600560205260409020600101546103f5816105c7565b6103ff83836105d4565b50505050565b6001600160a01b038116331461042e5760405163334bd91960e11b815260040160405180910390fd5b6104388282610668565b505050565b7f9f2df0fed2c77648de5860a4cc508cd0818c85b8b8a1ab4ceeef8d981c8956a6610467816105c7565b61043883836106d5565b60009182526005602090815260408084206001600160a01b0393909316845291905290205460ff1690565b60606004805461031b90610ad2565b6000336103ac818585610568565b6000828152600560205260409020600101546104d4816105c7565b6103ff8383610668565b610438838383600161070f565b6001600160a01b0383811660009081526001602090815260408083209386168352929052205460001981146103ff578181101561055957604051637dc7a0d960e11b81526001600160a01b038416600482015260248101829052604481018390526064015b60405180910390fd5b6103ff8484848403600061070f565b6001600160a01b03831661059257604051634b637e8f60e11b815260006004820152602401610550565b6001600160a01b0382166105bc5760405163ec442f0560e01b815260006004820152602401610550565b6104388383836107e4565b6105d1813361090e565b50565b60006105e08383610471565b6106605760008381526005602090815260408083206001600160a01b03861684529091529020805460ff191660011790556106183390565b6001600160a01b0316826001600160a01b0316847f2f8788117e7eff1d82e926ec794901d17c78024a50270940304540a733656f0d60405160405180910390a4506001610306565b506000610306565b60006106748383610471565b156106605760008381526005602090815260408083206001600160a01b0386168085529252808320805460ff1916905551339286917ff6391f5c32d9c69d2a47ea670b442974b53935d1edc7fd64eb21e047a839171b9190a4506001610306565b6001600160a01b0382166106ff5760405163ec442f0560e01b815260006004820152602401610550565b61070b600083836107e4565b5050565b6001600160a01b0384166107395760405163e602df0560e01b815260006004820152602401610550565b6001600160a01b03831661076357604051634a1406b160e11b815260006004820152602401610550565b6001600160a01b03808516600090815260016020908152604080832093871683529290522082905580156103ff57826001600160a01b0316846001600160a01b03167f8c5be1e5ebec7d5bd14f71427d1e84f3dd0314c0f7b2291e5b200ac8c7c3b925846040516107d691815260200190565b60405180910390a350505050565b6001600160a01b03831661080f5780600260008282546108049190610b0c565b909155506108819050565b6001600160a01b038316600090815260208190526040902054818110156108625760405163391434e360e21b81526001600160a01b03851660048201526024810182905260448101839052606401610550565b6001600160a01b03841660009081526020819052604090209082900390555b6001600160a01b03821661089d576002805482900390556108bc565b6001600160a01b03821660009081526020819052604090208054820190555b816001600160a01b0316836001600160a01b03167fddf252ad1be2c89b69c2b068fc378daa952ba7f163c4a11628f55a4df523b3ef8360405161090191815260200190565b60405180910390a3505050565b6109188282610471565b61070b5760405163e2517d3f60e01b81526001600160a01b038216600482015260248101839052604401610550565b60006020828403121561095957600080fd5b81356001600160e01b03198116811461097157600080fd5b9392505050565b600060208083528351808285015260005b818110156109a557858101830151858201604001528201610989565b506000604082860101526040601f19601f8301168501019250505092915050565b80356001600160a01b03811681146109dd57600080fd5b919050565b600080604083850312156109f557600080fd5b6109fe836109c6565b946020939093013593505050565b600080600060608486031215610a2157600080fd5b610a2a846109c6565b9250610a38602085016109c6565b9150604084013590509250925092565b600060208284031215610a5a57600080fd5b5035919050565b60008060408385031215610a7457600080fd5b82359150610a84602084016109c6565b90509250929050565b600060208284031215610a9f57600080fd5b610971826109c6565b60008060408385031215610abb57600080fd5b610ac4836109c6565b9150610a84602084016109c6565b600181811c90821680610ae657607f821691505b602082108103610b0657634e487b7160e01b600052602260045260246000fd5b50919050565b8082018082111561030657634e487b7160e01b600052601160045260246000fdfea2646970667358221220c3fd4d0a13c1aeda53523af1addf290507128a68e94526bd340b5911d55a706b64736f6c63430008150033000000000000000000000000000000000000000000000000000000000000006000000000000000000000000000000000000000000000000000000000000000a00000000000000000000000000000000000000000000000000000000000000006000000000000000000000000000000000000000000000000000000000000000a546574686572205553440000000000000000000000000000000000000000000000000000000000000000000000000000000000000000000000000000000000045553445400000000000000000000000000000000000000000000000000000000",
        "nonce": "0xf",
        "accessList": []
      },
      "additionalContracts": [],
      "isFixedGasLimit": false
    },
    {
      "hash": "0xb5dc116d66f76203af6b44153036d6536a56299b4c4aa4a1f7e09dc1a83cb369",
      "transactionType": "CALL",
      "contractName": "src/TestToken.sol:TestToken",
      "contractAddress": "0x6bF294B80C7d8Dc72DEE762af5d01260B756A051",
      "function": "mint(address,uint256)",
      "arguments": [
        "0x26bfAecAe4D5fa93eE1737ce1Ce7D53F2a0E9b2d",
        "100000000000"
      ],
      "transaction": {
        "type": "0x02",
        "from": "0x75d06bae37a9c349142fe7cee77804900b1c0ec3",
        "to": "0x6bf294b80c7d8dc72dee762af5d01260b756a051",
        "gas": "0x17e07",
        "value": "0x0",
        "data": "0x40c10f1900000000000000000000000026bfaecae4d5fa93ee1737ce1ce7d53f2a0e9b2d000000000000000000000000000000000000000000000000000000174876e800",
        "nonce": "0x10",
        "accessList": []
      },
      "additionalContracts": [],
      "isFixedGasLimit": false
    },
    {
      "hash": "0x80aa00da66ace27ab7517fec07d0584ecac106cade658c66157a656bb222caf3",
      "transactionType": "CALL",
      "contractName": "src/Faucet.sol:Faucet",
      "contractAddress": "0x26bfAecAe4D5fa93eE1737ce1Ce7D53F2a0E9b2d",
      "function": "setAmount(address,uint256)",
      "arguments": [
        "0xB77EB1A70A96fDAAeB31DB1b42F2b8b5846b2613",
        "500000000000000000000"
      ],
      "transaction": {
        "type": "0x02",
        "from": "0x75d06bae37a9c349142fe7cee77804900b1c0ec3",
        "to": "0x26bfaecae4d5fa93ee1737ce1ce7d53f2a0e9b2d",
        "gas": "0xf9f0",
        "value": "0x0",
        "data": "0xd2fafb19000000000000000000000000b77eb1a70a96fdaaeb31db1b42f2b8b5846b261300000000000000000000000000000000000000000000001b1ae4d6e2ef500000",
        "nonce": "0x11",
        "accessList": []
      },
      "additionalContracts": [],
      "isFixedGasLimit": false
    },
    {
      "hash": "0x8fc279ef6c9363bcd5cbf2a07bdb92718bb48c7b9bcc8051e7f8b5d9005da5b8",
      "transactionType": "CALL",
      "contractName": "src/Faucet.sol:Faucet",
      "contractAddress": "0x26bfAecAe4D5fa93eE1737ce1Ce7D53F2a0E9b2d",
      "function": "setAmount(address,uint256)",
      "arguments": [
        "0x80D6d3946ed8A1Da4E226aa21CCdDc32bd127d1A",
        "500000000"
      ],
      "transaction": {
        "type": "0x02",
        "from": "0x75d06bae37a9c349142fe7cee77804900b1c0ec3",
        "to": "0x26bfaecae4d5fa93ee1737ce1ce7d53f2a0e9b2d",
        "gas": "0xf9ae",
        "value": "0x0",
        "data": "0xd2fafb1900000000000000000000000080d6d3946ed8a1da4e226aa21ccddc32bd127d1a000000000000000000000000000000000000000000000000000000001dcd6500",
        "nonce": "0x12",
        "accessList": []
      },
      "additionalContracts": [],
      "isFixedGasLimit": false
    },
    {
      "hash": "0x7241868fb6da59b01a8b7e8243875b097f657b563642f17f8d824ebc5eb0bdac",
      "transactionType": "CALL",
      "contractName": "src/Faucet.sol:Faucet",
      "contractAddress": "0x26bfAecAe4D5fa93eE1737ce1Ce7D53F2a0E9b2d",
      "function": "setAmount(address,uint256)",
      "arguments": [
        "0x6bF294B80C7d8Dc72DEE762af5d01260B756A051",
        "500000000"
      ],
      "transaction": {
        "type": "0x02",
        "from": "0x75d06bae37a9c349142fe7cee77804900b1c0ec3",
        "to": "0x26bfaecae4d5fa93ee1737ce1ce7d53f2a0e9b2d",
        "gas": "0xf9ae",
        "value": "0x0",
        "data": "0xd2fafb190000000000000000000000006bf294b80c7d8dc72dee762af5d01260b756a051000000000000000000000000000000000000000000000000000000001dcd6500",
        "nonce": "0x13",
        "accessList": []
      },
      "additionalContracts": [],
      "isFixedGasLimit": false
    }
  ],
  "receipts": [
    {
      "transactionHash": "0x9c37aa5e8e9c3cf02482becc283e965ed2b99e893300bd0e1970e8146179da4a",
      "transactionIndex": "0x1b",
      "blockHash": "0xcc2cdcaca5b83fa709cbe7eb0accb2ec25f2cc3ba147bb68552ba2cb1cf51a82",
      "blockNumber": "0x513dc5",
      "from": "0x75D06bae37a9c349142fE7cee77804900b1C0EC3",
      "to": null,
      "cumulativeGasUsed": "0x354f96",
      "gasUsed": "0x64674",
      "contractAddress": "0x26bfAecAe4D5fa93eE1737ce1Ce7D53F2a0E9b2d",
      "logs": [
        {
          "address": "0x26bfAecAe4D5fa93eE1737ce1Ce7D53F2a0E9b2d",
          "topics": [
            "0x8be0079c531659141344cd1fd0a4f28419497f9722a3daafe3b4186f6b6457e0",
            "0x0000000000000000000000000000000000000000000000000000000000000000",
            "0x00000000000000000000000075d06bae37a9c349142fe7cee77804900b1c0ec3"
          ],
          "data": "0x",
          "blockHash": "0xcc2cdcaca5b83fa709cbe7eb0accb2ec25f2cc3ba147bb68552ba2cb1cf51a82",
          "blockNumber": "0x513dc5",
          "transactionHash": "0x9c37aa5e8e9c3cf02482becc283e965ed2b99e893300bd0e1970e8146179da4a",
          "transactionIndex": "0x1b",
          "logIndex": "0x1b",
          "removed": false
        }
      ],
      "status": "0x1",
      "logsBloom": "0x00000000000000000000000000000000000000000000000000800010000000000000000000000000000000000000000000000000000000000000000000000000000000000000000000000000000000000001000000000000000000000000000000000000020000000000000000000800000000000000000080000000000000400000000000000000000000000000000000000000000000000000000000000000000400000000000000000000020000000000000000000000000000000000000010000000000000000000000000000008000000000000000000000000000020000000000000000000000000000000000000000000000000000000000000000000",
      "type": "0x2",
      "effectiveGasPrice": "0xb2d06059"
    },
    {
      "transactionHash": "0xa1cb06de7aaa3a378457a3aa097176c5a09fcb3812d5aab4b4fc4984caa6a218",
      "transactionIndex": "0x1d",
      "blockHash": "0xcc2cdcaca5b83fa709cbe7eb0accb2ec25f2cc3ba147bb68552ba2cb1cf51a82",
      "blockNumber": "0x513dc5",
      "from": "0x75D06bae37a9c349142fE7cee77804900b1C0EC3",
      "to": null,
      "cumulativeGasUsed": "0x424cb6",
      "gasUsed": "0xc778a",
      "contractAddress": "0xB77EB1A70A96fDAAeB31DB1b42F2b8b5846b2613",
      "logs": [
        {
          "address": "0xB77EB1A70A96fDAAeB31DB1b42F2b8b5846b2613",
          "topics": [
            "0x2f8788117e7eff1d82e926ec794901d17c78024a50270940304540a733656f0d",
            "0x0000000000000000000000000000000000000000000000000000000000000000",
            "0x00000000000000000000000075d06bae37a9c349142fe7cee77804900b1c0ec3",
            "0x00000000000000000000000075d06bae37a9c349142fe7cee77804900b1c0ec3"
          ],
          "data": "0x",
          "blockHash": "0xcc2cdcaca5b83fa709cbe7eb0accb2ec25f2cc3ba147bb68552ba2cb1cf51a82",
          "blockNumber": "0x513dc5",
          "transactionHash": "0xa1cb06de7aaa3a378457a3aa097176c5a09fcb3812d5aab4b4fc4984caa6a218",
          "transactionIndex": "0x1d",
          "logIndex": "0x1d",
          "removed": false
        },
        {
          "address": "0xB77EB1A70A96fDAAeB31DB1b42F2b8b5846b2613",
          "topics": [
            "0x2f8788117e7eff1d82e926ec794901d17c78024a50270940304540a733656f0d",
            "0x9f2df0fed2c77648de5860a4cc508cd0818c85b8b8a1ab4ceeef8d981c8956a6",
            "0x00000000000000000000000075d06bae37a9c349142fe7cee77804900b1c0ec3",
            "0x00000000000000000000000075d06bae37a9c349142fe7cee77804900b1c0ec3"
          ],
          "data": "0x",
          "blockHash": "0xcc2cdcaca5b83fa709cbe7eb0accb2ec25f2cc3ba147bb68552ba2cb1cf51a82",
          "blockNumber": "0x513dc5",
          "transactionHash": "0xa1cb06de7aaa3a378457a3aa097176c5a09fcb3812d5aab4b4fc4984caa6a218",
          "transactionIndex": "0x1d",
          "logIndex": "0x1e",
          "removed": false
        }
      ],
      "status": "0x1",
      "logsBloom": "0x00000004000000000000000000000000000000000000000000000010000000000000000000000000000000000000004000000000000000000000000000000000000000000000000000000000000000000000000000000000000000000000000000000000020000000000000000000800000000000004000000000000001000000000000000000000000000000000000000000000000000000000000000000000000000000000000000000000020000000000000000000000001000000000000000000000000000000000000000000008001000000000000100000000000020000080000000000000000000000000000000000000000000000000000000020000",
      "type": "0x2",
      "effectiveGasPrice": "0xb2d06059"
    },
    {
      "transactionHash": "0xc846d88844bdced3a8160f7f38009a50e7368b20e3c08ba3b26e398478d7dff2",
      "transactionIndex": "0x1e",
      "blockHash": "0xcc2cdcaca5b83fa709cbe7eb0accb2ec25f2cc3ba147bb68552ba2cb1cf51a82",
      "blockNumber": "0x513dc5",
      "from": "0x75D06bae37a9c349142fE7cee77804900b1C0EC3",
      "to": "0xB77EB1A70A96fDAAeB31DB1b42F2b8b5846b2613",
      "cumulativeGasUsed": "0x43617b",
      "gasUsed": "0x114c5",
      "contractAddress": null,
      "logs": [
        {
          "address": "0xB77EB1A70A96fDAAeB31DB1b42F2b8b5846b2613",
          "topics": [
            "0xddf252ad1be2c89b69c2b068fc378daa952ba7f163c4a11628f55a4df523b3ef",
            "0x0000000000000000000000000000000000000000000000000000000000000000",
            "0x00000000000000000000000026bfaecae4d5fa93ee1737ce1ce7d53f2a0e9b2d"
          ],
          "data": "0x00000000000000000000000000000000000000000000152d02c7e14af6800000",
          "blockHash": "0xcc2cdcaca5b83fa709cbe7eb0accb2ec25f2cc3ba147bb68552ba2cb1cf51a82",
          "blockNumber": "0x513dc5",
          "transactionHash": "0xc846d88844bdced3a8160f7f38009a50e7368b20e3c08ba3b26e398478d7dff2",
          "transactionIndex": "0x1e",
          "logIndex": "0x1f",
          "removed": false
        }
      ],
      "status": "0x1",
      "logsBloom": "0x00000000000000000000000000000000000000000000000000000000000000000000000000000000000000000000000000000000000000000000000000000000000000000000000000000008000000000000000000000000000000000000000000000000020000000000000000000800000000000004000000000010000000000000000010000000000000000000000000000000000000000000000000000000000000000000000000000000000000000000000000000000000000000000000000000002000000000000000000000000000000000000000000000000000020010080000000000000000000000000000000000000000000002000000000020000",
      "type": "0x2",
      "effectiveGasPrice": "0xb2d06059"
    },
    {
      "transactionHash": "0x8ddffc9884c59825a4b6622e423f57a6a5ad95d554dffd8893c2be8a74ba75d2",
      "transactionIndex": "0x1f",
      "blockHash": "0xcc2cdcaca5b83fa709cbe7eb0accb2ec25f2cc3ba147bb68552ba2cb1cf51a82",
      "blockNumber": "0x513dc5",
      "from": "0x75D06bae37a9c349142fE7cee77804900b1C0EC3",
      "to": null,
      "cumulativeGasUsed": "0x4fd8c9",
      "gasUsed": "0xc774e",
      "contractAddress": "0x80D6d3946ed8A1Da4E226aa21CCdDc32bd127d1A",
      "logs": [
        {
          "address": "0x80D6d3946ed8A1Da4E226aa21CCdDc32bd127d1A",
          "topics": [
            "0x2f8788117e7eff1d82e926ec794901d17c78024a50270940304540a733656f0d",
            "0x0000000000000000000000000000000000000000000000000000000000000000",
            "0x00000000000000000000000075d06bae37a9c349142fe7cee77804900b1c0ec3",
            "0x00000000000000000000000075d06bae37a9c349142fe7cee77804900b1c0ec3"
          ],
          "data": "0x",
          "blockHash": "0xcc2cdcaca5b83fa709cbe7eb0accb2ec25f2cc3ba147bb68552ba2cb1cf51a82",
          "blockNumber": "0x513dc5",
          "transactionHash": "0x8ddffc9884c59825a4b6622e423f57a6a5ad95d554dffd8893c2be8a74ba75d2",
          "transactionIndex": "0x1f",
          "logIndex": "0x20",
          "removed": false
        },
        {
          "address": "0x80D6d3946ed8A1Da4E226aa21CCdDc32bd127d1A",
          "topics": [
            "0x2f8788117e7eff1d82e926ec794901d17c78024a50270940304540a733656f0d",
            "0x9f2df0fed2c77648de5860a4cc508cd0818c85b8b8a1ab4ceeef8d981c8956a6",
            "0x00000000000000000000000075d06bae37a9c349142fe7cee77804900b1c0ec3",
            "0x00000000000000000000000075d06bae37a9c349142fe7cee77804900b1c0ec3"
          ],
          "data": "0x",
          "blockHash": "0xcc2cdcaca5b83fa709cbe7eb0accb2ec25f2cc3ba147bb68552ba2cb1cf51a82",
          "blockNumber": "0x513dc5",
          "transactionHash": "0x8ddffc9884c59825a4b6622e423f57a6a5ad95d554dffd8893c2be8a74ba75d2",
          "transactionIndex": "0x1f",
          "logIndex": "0x21",
          "removed": false
        }
      ],
      "status": "0x1",
      "logsBloom": "0x00000004000000000000000000000000000000000000000000000010000000000000000000000000000000000000004000000000000000000000000000000000000000000000000000000000000000000000000000000000000000000000000000000000020000000000000001000800000000000000000000000000041000000000000000000000000000000000000000000000000000000000000000000000000000000000000000000000020000000000000000000000001000000000000000000000000000000000000000000008001000000000000100000000000020000000000000000000000000000000000000000000000000000000000000001000",
      "type": "0x2",
      "effectiveGasPrice": "0xb2d06059"
    },
    {
      "transactionHash": "0x96628afdf88b43631c6e9937e6789e29162dc48c55588ae97169318978d99dec",
      "transactionIndex": "0x20",
      "blockHash": "0xcc2cdcaca5b83fa709cbe7eb0accb2ec25f2cc3ba147bb68552ba2cb1cf51a82",
      "blockNumber": "0x513dc5",
      "from": "0x75D06bae37a9c349142fE7cee77804900b1C0EC3",
      "to": "0x80D6d3946ed8A1Da4E226aa21CCdDc32bd127d1A",
      "cumulativeGasUsed": "0x50ed5e",
      "gasUsed": "0x11495",
      "contractAddress": null,
      "logs": [
        {
          "address": "0x80D6d3946ed8A1Da4E226aa21CCdDc32bd127d1A",
          "topics": [
            "0xddf252ad1be2c89b69c2b068fc378daa952ba7f163c4a11628f55a4df523b3ef",
            "0x0000000000000000000000000000000000000000000000000000000000000000",
            "0x00000000000000000000000026bfaecae4d5fa93ee1737ce1ce7d53f2a0e9b2d"
          ],
          "data": "0x000000000000000000000000000000000000000000000000000000174876e800",
          "blockHash": "0xcc2cdcaca5b83fa709cbe7eb0accb2ec25f2cc3ba147bb68552ba2cb1cf51a82",
          "blockNumber": "0x513dc5",
          "transactionHash": "0x96628afdf88b43631c6e9937e6789e29162dc48c55588ae97169318978d99dec",
          "transactionIndex": "0x20",
          "logIndex": "0x22",
          "removed": false
        }
      ],
      "status": "0x1",
      "logsBloom": "0x00000000000000000000000000000000000000000000000000000000000000000000000000000000000000000000000000000000000000000000000000000000000000000000000000000008000000000000000000000000000000000000000000000000020000000000000001000800000000000000000000000010040000000000000010000000000000000000000000000000000000000000000000000000000000000000000000000000000000000000000000000000000000000000000000000002000000000000000000000000000000000000000000000000000020010000000000000000000000000000000000000000000000002000000000001000",
      "type": "0x2",
      "effectiveGasPrice": "0xb2d06059"
    },
    {
      "transactionHash": "0x93fbbe94ad2b1ee2117de0c3a16880951be8bd1b123879fba0cd134591d6f1e4",
      "transactionIndex": "0x21",
      "blockHash": "0xcc2cdcaca5b83fa709cbe7eb0accb2ec25f2cc3ba147bb68552ba2cb1cf51a82",
      "blockNumber": "0x513dc5",
      "from": "0x75D06bae37a9c349142fE7cee77804900b1C0EC3",
      "to": null,
      "cumulativeGasUsed": "0x5d64c4",
      "gasUsed": "0xc7766",
      "contractAddress": "0x6bF294B80C7d8Dc72DEE762af5d01260B756A051",
      "logs": [
        {
          "address": "0x6bF294B80C7d8Dc72DEE762af5d01260B756A051",
          "topics": [
            "0x2f8788117e7eff1d82e926ec794901d17c78024a50270940304540a733656f0d",
            "0x0000000000000000000000000000000000000000000000000000000000000000",
            "0x00000000000000000000000075d06bae37a9c349142fe7cee77804900b1c0ec3",
            "0x00000000000000000000000075d06bae37a9c349142fe7cee77804900b1c0ec3"
          ],
          "data": "0x",
          "blockHash": "0xcc2cdcaca5b83fa709cbe7eb0accb2ec25f2cc3ba147bb68552ba2cb1cf51a82",
          "blockNumber": "0x513dc5",
          "transactionHash": "0x93fbbe94ad2b1ee2117de0c3a16880951be8bd1b123879fba0cd134591d6f1e4",
          "transactionIndex": "0x21",
          "logIndex": "0x23",
          "removed": false
        },
        {
          "address": "0x6bF294B80C7d8Dc72DEE762af5d01260B756A051",
          "topics": [
            "0x2f8788117e7eff1d82e926ec794901d17c78024a50270940304540a733656f0d",
            "0x9f2df0fed2c77648de5860a4cc508cd0818c85b8b8a1ab4ceeef8d981c8956a6",
            "0x00000000000000000000000075d06bae37a9c349142fe7cee77804900b1c0ec3",
            "0x00000000000000000000000075d06bae37a9c349142fe7cee77804900b1c0ec3"
          ],
          "data": "0x",
          "blockHash": "0xcc2cdcaca5b83fa709cbe7eb0accb2ec25f2cc3ba147bb68552ba2cb1cf51a82",
          "blockNumber": "0x513dc5",
          "transactionHash": "0x93fbbe94ad2b1ee2117de0c3a16880951be8bd1b123879fba0cd134591d6f1e4",
          "transactionIndex": "0x21",
          "logIndex": "0x24",
          "removed": false
        }
      ],
      "status": "0x1",
      "logsBloom": "0x00000004000000000000000000000000000000000000000000000010000000000000000000000000000000000000004000000000000000000000000000000080000000000000000000000000000000000000000000000000000000000000000000000000020000000000000000000800000000000000000000000000001000800000000000000000000000000000000000000000000000000000000000000000000000000000000000000000020000000000000000000000001000000020000000000000000000000000000000000008001000000000000100000000000020000000000000000000000000000000000000000000000000000000000000000000",
      "type": "0x2",
      "effectiveGasPrice": "0xb2d06059"
    },
    {
      "transactionHash": "0xb5dc116d66f76203af6b44153036d6536a56299b4c4aa4a1f7e09dc1a83cb369",
      "transactionIndex": "0x22",
      "blockHash": "0xcc2cdcaca5b83fa709cbe7eb0accb2ec25f2cc3ba147bb68552ba2cb1cf51a82",
      "blockNumber": "0x513dc5",
      "from": "0x75D06bae37a9c349142fE7cee77804900b1C0EC3",
      "to": "0x6bF294B80C7d8Dc72DEE762af5d01260B756A051",
      "cumulativeGasUsed": "0x5e7959",
      "gasUsed": "0x11495",
      "contractAddress": null,
      "logs": [
        {
          "address": "0x6bF294B80C7d8Dc72DEE762af5d01260B756A051",
          "topics": [
            "0xddf252ad1be2c89b69c2b068fc378daa952ba7f163c4a11628f55a4df523b3ef",
            "0x0000000000000000000000000000000000000000000000000000000000000000",
            "0x00000000000000000000000026bfaecae4d5fa93ee1737ce1ce7d53f2a0e9b2d"
          ],
          "data": "0x000000000000000000000000000000000000000000000000000000174876e800",
          "blockHash": "0xcc2cdcaca5b83fa709cbe7eb0accb2ec25f2cc3ba147bb68552ba2cb1cf51a82",
          "blockNumber": "0x513dc5",
          "transactionHash": "0xb5dc116d66f76203af6b44153036d6536a56299b4c4aa4a1f7e09dc1a83cb369",
          "transactionIndex": "0x22",
          "logIndex": "0x25",
          "removed": false
        }
      ],
      "status": "0x1",
      "logsBloom": "0x00000000000000000000000000000000000000000000000000000000000000000000000000000000000000000000000000000000000000000000000000000080000000000000000000000008000000000000000000000000000000000000000000000000020000000000000000000800000000000000000000000010000000800000000010000000000000000000000000000000000000000000000000000000000000000000000000000000000000000000000000000000000000000020000000000002000000000000000000000000000000000000000000000000000020010000000000000000000000000000000000000000000000002000000000000000",
      "type": "0x2",
      "effectiveGasPrice": "0xb2d06059"
    },
    {
      "transactionHash": "0x80aa00da66ace27ab7517fec07d0584ecac106cade658c66157a656bb222caf3",
      "transactionIndex": "0x23",
      "blockHash": "0xcc2cdcaca5b83fa709cbe7eb0accb2ec25f2cc3ba147bb68552ba2cb1cf51a82",
      "blockNumber": "0x513dc5",
      "from": "0x75D06bae37a9c349142fE7cee77804900b1C0EC3",
      "to": "0x26bfAecAe4D5fa93eE1737ce1Ce7D53F2a0E9b2d",
      "cumulativeGasUsed": "0x5f2e4d",
      "gasUsed": "0xb4f4",
      "contractAddress": null,
      "logs": [],
      "status": "0x1",
      "logsBloom": "0x00000000000000000000000000000000000000000000000000000000000000000000000000000000000000000000000000000000000000000000000000000000000000000000000000000000000000000000000000000000000000000000000000000000000000000000000000000000000000000000000000000000000000000000000000000000000000000000000000000000000000000000000000000000000000000000000000000000000000000000000000000000000000000000000000000000000000000000000000000000000000000000000000000000000000000000000000000000000000000000000000000000000000000000000000000000",
      "type": "0x2",
      "effectiveGasPrice": "0xb2d06059"
    },
    {
      "transactionHash": "0x8fc279ef6c9363bcd5cbf2a07bdb92718bb48c7b9bcc8051e7f8b5d9005da5b8",
      "transactionIndex": "0x24",
      "blockHash": "0xcc2cdcaca5b83fa709cbe7eb0accb2ec25f2cc3ba147bb68552ba2cb1cf51a82",
      "blockNumber": "0x513dc5",
      "from": "0x75D06bae37a9c349142fE7cee77804900b1C0EC3",
      "to": "0x26bfAecAe4D5fa93eE1737ce1Ce7D53F2a0E9b2d",
      "cumulativeGasUsed": "0x5fe311",
      "gasUsed": "0xb4c4",
      "contractAddress": null,
      "logs": [],
      "status": "0x1",
      "logsBloom": "0x00000000000000000000000000000000000000000000000000000000000000000000000000000000000000000000000000000000000000000000000000000000000000000000000000000000000000000000000000000000000000000000000000000000000000000000000000000000000000000000000000000000000000000000000000000000000000000000000000000000000000000000000000000000000000000000000000000000000000000000000000000000000000000000000000000000000000000000000000000000000000000000000000000000000000000000000000000000000000000000000000000000000000000000000000000000",
      "type": "0x2",
      "effectiveGasPrice": "0xb2d06059"
    },
    {
      "transactionHash": "0x7241868fb6da59b01a8b7e8243875b097f657b563642f17f8d824ebc5eb0bdac",
      "transactionIndex": "0x25",
      "blockHash": "0xcc2cdcaca5b83fa709cbe7eb0accb2ec25f2cc3ba147bb68552ba2cb1cf51a82",
      "blockNumber": "0x513dc5",
      "from": "0x75D06bae37a9c349142fE7cee77804900b1C0EC3",
      "to": "0x26bfAecAe4D5fa93eE1737ce1Ce7D53F2a0E9b2d",
      "cumulativeGasUsed": "0x6097d5",
      "gasUsed": "0xb4c4",
      "contractAddress": null,
      "logs": [],
      "status": "0x1",
      "logsBloom": "0x00000000000000000000000000000000000000000000000000000000000000000000000000000000000000000000000000000000000000000000000000000000000000000000000000000000000000000000000000000000000000000000000000000000000000000000000000000000000000000000000000000000000000000000000000000000000000000000000000000000000000000000000000000000000000000000000000000000000000000000000000000000000000000000000000000000000000000000000000000000000000000000000000000000000000000000000000000000000000000000000000000000000000000000000000000000",
      "type": "0x2",
      "effectiveGasPrice": "0xb2d06059"
    }
  ],
  "libraries": [],
  "pending": [],
  "returns": {},
  "timestamp": 1708393260,
  "chain": 11155111,
  "multi": false,
  "commit": "20dfd0b"
}